{
  "contractName": "ConsentContract",
  "abi": [
    {
      "anonymous": false,
      "inputs": [
        {
          "indexed": true,
          "internalType": "address",
          "name": "user",
          "type": "address"
        },
        {
          "indexed": false,
          "internalType": "bool",
          "name": "consent",
          "type": "bool"
        }
      ],
      "name": "ConsentUpdated",
      "type": "event"
    },
    {
      "inputs": [],
      "name": "giveConsent",
      "outputs": [],
      "stateMutability": "nonpayable",
      "type": "function"
    },
    {
      "inputs": [],
      "name": "withdrawConsent",
      "outputs": [],
      "stateMutability": "nonpayable",
      "type": "function"
    },
    {
      "inputs": [
        {
          "internalType": "address",
          "name": "user",
          "type": "address"
        }
      ],
      "name": "checkConsent",
      "outputs": [
        {
          "internalType": "bool",
          "name": "",
          "type": "bool"
        }
      ],
      "stateMutability": "view",
      "type": "function",
      "constant": true
    }
  ],
  "bytecode": "0x608060405234801561001057600080fd5b5061032b806100206000396000f3fe608060405234801561001057600080fd5b50600436106100415760003560e01c8063179afc36146100465780634bf80d3914610050578063c5e6cf521461005a575b600080fd5b61004e61008a565b005b610058610132565b005b610074600480360381019061006f9190610292565b6101da565b60405161008191906102da565b60405180910390f35b60008060003373ffffffffffffffffffffffffffffffffffffffff1673ffffffffffffffffffffffffffffffffffffffff16815260200190815260200160002060006101000a81548160ff0219169083151502179055503373ffffffffffffffffffffffffffffffffffffffff167f7bdbd5ff3d003672492455cc5133da0a6ac7f911054f30d5f423443f90418c71600060405161012891906102da565b60405180910390a2565b60016000803373ffffffffffffffffffffffffffffffffffffffff1673ffffffffffffffffffffffffffffffffffffffff16815260200190815260200160002060006101000a81548160ff0219169083151502179055503373ffffffffffffffffffffffffffffffffffffffff167f7bdbd5ff3d003672492455cc5133da0a6ac7f911054f30d5f423443f90418c7160016040516101d091906102da565b60405180910390a2565b60008060008373ffffffffffffffffffffffffffffffffffffffff1673ffffffffffffffffffffffffffffffffffffffff16815260200190815260200160002060009054906101000a900460ff169050919050565b600080fd5b600073ffffffffffffffffffffffffffffffffffffffff82169050919050565b600061025f82610234565b9050919050565b61026f81610254565b811461027a57600080fd5b50565b60008135905061028c81610266565b92915050565b6000602082840312156102a8576102a761022f565b5b60006102b68482850161027d565b91505092915050565b60008115159050919050565b6102d4816102bf565b82525050565b60006020820190506102ef60008301846102cb565b9291505056fea26469706673582212209f1ff88ae9ca7e29b94e769e48cbaa18a782ca906e4915843f4e97128b13135664736f6c63430008130033",
  "immutableReferences": {},
  "source": "// SPDX-License-Identifier: UNLICENSED\npragma solidity 0.8.19;\n\ncontract ConsentContract {\n    mapping(address => bool) private userConsents;\n\n    event ConsentUpdated(address indexed user, bool consent);\n\n    function giveConsent() public {\n        userConsents[msg.sender] = true;\n        emit ConsentUpdated(msg.sender, true);\n    }\n\n    function withdrawConsent() public {\n        userConsents[msg.sender] = false;\n        emit ConsentUpdated(msg.sender, false);\n    }\n\n    function checkConsent(address user) public view returns (bool) {\n        return userConsents[user];\n    }\n}\n",
  "sourcePath": "/Users/jochen/Projects/School/Bp/poc/contracts/ConsentContract.sol",
  "compiler": {
    "name": "solc",
    "version": "0.8.19+commit.7dd6d404.Emscripten.clang"
  },
  "schemaVersion": "3.4.16",
  "updatedAt": "2024-05-06T22:40:47.391Z",
  "networkType": "ethereum",
  "devdoc": {
    "kind": "dev",
    "methods": {},
    "version": 1
  },
  "userdoc": {
    "kind": "user",
    "methods": {},
    "version": 1
  }
}