{
  "contractName": "ContentContract",
  "abi": [
    {
      "anonymous": false,
      "inputs": [
        {
          "indexed": false,
          "internalType": "uint256",
          "name": "contentId",
          "type": "uint256"
        },
        {
          "indexed": false,
          "internalType": "address",
          "name": "author",
          "type": "address"
        },
        {
          "indexed": false,
          "internalType": "string",
          "name": "data",
          "type": "string"
        }
      ],
      "name": "ContentCreated",
      "type": "event"
    },
    {
      "anonymous": false,
      "inputs": [
        {
          "indexed": false,
          "internalType": "uint256",
          "name": "contentId",
          "type": "uint256"
        }
      ],
      "name": "ContentFlagged",
      "type": "event"
    },
    {
      "anonymous": false,
      "inputs": [
        {
          "indexed": false,
          "internalType": "uint256",
          "name": "contentId",
          "type": "uint256"
        },
        {
          "indexed": false,
          "internalType": "int256",
          "name": "score",
          "type": "int256"
        }
      ],
      "name": "ScoreUpdated",
      "type": "event"
    },
    {
      "inputs": [
        {
          "internalType": "uint256",
          "name": "",
          "type": "uint256"
        }
      ],
      "name": "contents",
      "outputs": [
        {
          "internalType": "uint256",
          "name": "id",
          "type": "uint256"
        },
        {
          "internalType": "string",
          "name": "data",
          "type": "string"
        },
        {
          "internalType": "address",
          "name": "author",
          "type": "address"
        },
        {
          "internalType": "bool",
          "name": "isFlagged",
          "type": "bool"
        },
        {
          "internalType": "int256",
          "name": "score",
          "type": "int256"
        }
      ],
      "stateMutability": "view",
      "type": "function",
      "constant": true
    },
    {
      "inputs": [],
      "name": "flagThreshold",
      "outputs": [
        {
          "internalType": "int256",
          "name": "",
          "type": "int256"
        }
      ],
      "stateMutability": "view",
      "type": "function",
      "constant": true
    },
    {
      "inputs": [
        {
          "internalType": "string",
          "name": "_data",
          "type": "string"
        }
      ],
      "name": "createContent",
      "outputs": [],
      "stateMutability": "nonpayable",
      "type": "function"
    },
    {
      "inputs": [
        {
          "internalType": "uint256",
          "name": "_id",
          "type": "uint256"
        },
        {
          "internalType": "int256",
          "name": "_change",
          "type": "int256"
        }
      ],
      "name": "updateScore",
      "outputs": [],
      "stateMutability": "nonpayable",
      "type": "function"
    },
    {
      "inputs": [],
      "name": "getContentsCount",
      "outputs": [
        {
          "internalType": "uint256",
          "name": "",
          "type": "uint256"
        }
      ],
      "stateMutability": "view",
      "type": "function",
      "constant": true
    },
    {
      "inputs": [
        {
          "internalType": "uint256",
          "name": "_id",
          "type": "uint256"
        }
      ],
      "name": "getContent",
      "outputs": [
        {
          "internalType": "uint256",
          "name": "",
          "type": "uint256"
        },
        {
          "internalType": "string",
          "name": "",
          "type": "string"
        },
        {
          "internalType": "address",
          "name": "",
          "type": "address"
        },
        {
          "internalType": "bool",
          "name": "",
          "type": "bool"
        },
        {
          "internalType": "int256",
          "name": "",
          "type": "int256"
        }
      ],
      "stateMutability": "view",
      "type": "function",
      "constant": true
    },
    {
      "inputs": [],
      "name": "getFlaggedContents",
      "outputs": [
        {
          "internalType": "uint256[]",
          "name": "",
          "type": "uint256[]"
        }
      ],
      "stateMutability": "view",
      "type": "function",
      "constant": true
    },
    {
      "inputs": [
        {
          "internalType": "address",
          "name": "_author",
          "type": "address"
        }
      ],
      "name": "getAuthorContents",
      "outputs": [
        {
          "internalType": "uint256[]",
          "name": "",
          "type": "uint256[]"
        }
      ],
      "stateMutability": "view",
      "type": "function",
      "constant": true
    },
    {
      "inputs": [
        {
          "internalType": "address",
          "name": "_author",
          "type": "address"
        }
      ],
      "name": "getAuthorFlaggedContents",
      "outputs": [
        {
          "internalType": "uint256[]",
          "name": "",
          "type": "uint256[]"
        }
      ],
      "stateMutability": "view",
      "type": "function",
      "constant": true
    },
    {
      "inputs": [
        {
          "internalType": "address",
          "name": "_author",
          "type": "address"
        }
      ],
      "name": "getAuthorScore",
      "outputs": [
        {
          "internalType": "int256",
          "name": "",
          "type": "int256"
        }
      ],
      "stateMutability": "view",
      "type": "function",
      "constant": true
    },
    {
      "inputs": [
        {
          "internalType": "address",
          "name": "_author",
          "type": "address"
        }
      ],
      "name": "getAuthorFlaggedScore",
      "outputs": [
        {
          "internalType": "int256",
          "name": "",
          "type": "int256"
        }
      ],
      "stateMutability": "view",
      "type": "function",
      "constant": true
    }
  ],
  "bytecode": "0x60806040527ffffffffffffffffffffffffffffffffffffffffffffffffffffffffffffffff660015534801561003457600080fd5b506118a0806100446000396000f3fe608060405234801561001057600080fd5b50600436106100a95760003560e01c80637d2a9610116100715780637d2a961014610168578063b5ecf91214610186578063c8b11829146101ba578063d4cd892f146101ea578063f4b4b1301461021a578063fd1ea33e1461024a576100a9565b80630b7ad54c146100ae57806316437f06146100e2578063242ba5cc146100fe578063497cc8411461011c57806352535ce614610138575b600080fd5b6100c860048036038101906100c39190610f13565b610268565b6040516100d9959493929190611054565b60405180910390f35b6100fc60048036038101906100f791906110da565b6103e5565b005b61010661047e565b604051610113919061111a565b60405180910390f35b6101366004803603810190610131919061126a565b610484565b005b610152600480360381019061014d91906112df565b6105dd565b60405161015f919061111a565b60405180910390f35b6101706106bd565b60405161017d919061130c565b60405180910390f35b6101a0600480360381019061019b9190610f13565b6106c9565b6040516101b1959493929190611054565b60405180910390f35b6101d460048036038101906101cf91906112df565b6107c4565b6040516101e1919061111a565b60405180910390f35b61020460048036038101906101ff91906112df565b6108e0565b60405161021191906113e5565b60405180910390f35b610234600480360381019061022f91906112df565b610b2a565b60405161024191906113e5565b60405180910390f35b610252610cfc565b60405161025f91906113e5565b60405180910390f35b600060606000806000806000878154811061028657610285611407565b5b90600052602060002090600402016040518060a0016040529081600082015481526020016001820180546102b990611465565b80601f01602080910402602001604051908101604052809291908181526020018280546102e590611465565b80156103325780601f1061030757610100808354040283529160200191610332565b820191906000526020600020905b81548152906001019060200180831161031557829003601f168201915b505050505081526020016002820160009054906101000a900473ffffffffffffffffffffffffffffffffffffffff1673ffffffffffffffffffffffffffffffffffffffff1673ffffffffffffffffffffffffffffffffffffffff1681526020016002820160149054906101000a900460ff16151515158152602001600382015481525050905080600001518160200151826040015183606001518460800151955095509550955095505091939590929450565b60008083815481106103fa576103f9611407565b5b906000526020600020906004020190508181600301600082825461041e91906114c5565b925050819055507fc8720a01b4a2a659599d6343a0af2df700e1159aef04fab4d408ff0f39dfd1e083826003015460405161045a929190611509565b60405180910390a16001548160030154136104795761047883610e4c565b5b505050565b60015481565b60006040518060a0016040528060008054905081526020018381526020013373ffffffffffffffffffffffffffffffffffffffff1681526020016000151581526020016000815250908060018154018082558091505060019003906000526020600020906004020160009091909190915060008201518160000155602082015181600101908161051491906116de565b5060408201518160020160006101000a81548173ffffffffffffffffffffffffffffffffffffffff021916908373ffffffffffffffffffffffffffffffffffffffff16021790555060608201518160020160146101000a81548160ff0219169083151502179055506080820151816003015550506000600160008054905061059c91906117b0565b90507fbacf9f620fd10df5b39931f2a3012e753be545aba5d7642b9bdb59b527709f1d8133846040516105d1939291906117e4565b60405180910390a15050565b6000806000905060005b6000805490508110156106b3578373ffffffffffffffffffffffffffffffffffffffff166000828154811061061f5761061e611407565b5b906000526020600020906004020160020160009054906101000a900473ffffffffffffffffffffffffffffffffffffffff1673ffffffffffffffffffffffffffffffffffffffff16036106a057600081815481106106805761067f611407565b5b9060005260206000209060040201600301548261069d91906114c5565b91505b80806106ab90611822565b9150506105e7565b5080915050919050565b60008080549050905090565b600081815481106106d957600080fd5b906000526020600020906004020160009150905080600001549080600101805461070290611465565b80601f016020809104026020016040519081016040528092919081815260200182805461072e90611465565b801561077b5780601f106107505761010080835404028352916020019161077b565b820191906000526020600020905b81548152906001019060200180831161075e57829003601f168201915b5050505050908060020160009054906101000a900473ffffffffffffffffffffffffffffffffffffffff16908060020160149054906101000a900460ff16908060030154905085565b6000806000905060005b6000805490508110156108d6578373ffffffffffffffffffffffffffffffffffffffff166000828154811061080657610805611407565b5b906000526020600020906004020160020160009054906101000a900473ffffffffffffffffffffffffffffffffffffffff1673ffffffffffffffffffffffffffffffffffffffff1614801561088a57506000818154811061086a57610869611407565b5b906000526020600020906004020160020160149054906101000a900460ff165b156108c357600081815481106108a3576108a2611407565b5b906000526020600020906004020160030154826108c091906114c5565b91505b80806108ce90611822565b9150506107ce565b5080915050919050565b60606000805b6000805490508110156109c9578373ffffffffffffffffffffffffffffffffffffffff166000828154811061091e5761091d611407565b5b906000526020600020906004020160020160009054906101000a900473ffffffffffffffffffffffffffffffffffffffff1673ffffffffffffffffffffffffffffffffffffffff161480156109a257506000818154811061098257610981611407565b5b906000526020600020906004020160020160149054906101000a900460ff165b156109b65781806109b290611822565b9250505b80806109c190611822565b9150506108e6565b5060008167ffffffffffffffff8111156109e6576109e561113f565b5b604051908082528060200260200182016040528015610a145781602001602082028036833780820191505090505b5090506000805b600080549050811015610b1e578573ffffffffffffffffffffffffffffffffffffffff1660008281548110610a5357610a52611407565b5b906000526020600020906004020160020160009054906101000a900473ffffffffffffffffffffffffffffffffffffffff1673ffffffffffffffffffffffffffffffffffffffff16148015610ad7575060008181548110610ab757610ab6611407565b5b906000526020600020906004020160020160149054906101000a900460ff165b15610b0b5780838381518110610af057610aef611407565b5b6020026020010181815250508180610b0790611822565b9250505b8080610b1690611822565b915050610a1b565b50819350505050919050565b60606000805b600080549050811015610bd7578373ffffffffffffffffffffffffffffffffffffffff1660008281548110610b6857610b67611407565b5b906000526020600020906004020160020160009054906101000a900473ffffffffffffffffffffffffffffffffffffffff1673ffffffffffffffffffffffffffffffffffffffff1603610bc4578180610bc090611822565b9250505b8080610bcf90611822565b915050610b30565b5060008167ffffffffffffffff811115610bf457610bf361113f565b5b604051908082528060200260200182016040528015610c225781602001602082028036833780820191505090505b5090506000805b600080549050811015610cf0578573ffffffffffffffffffffffffffffffffffffffff1660008281548110610c6157610c60611407565b5b906000526020600020906004020160020160009054906101000a900473ffffffffffffffffffffffffffffffffffffffff1673ffffffffffffffffffffffffffffffffffffffff1603610cdd5780838381518110610cc257610cc1611407565b5b6020026020010181815250508180610cd990611822565b9250505b8080610ce890611822565b915050610c29565b50819350505050919050565b60606000805b600080549050811015610d695760008181548110610d2357610d22611407565b5b906000526020600020906004020160020160149054906101000a900460ff1615610d56578180610d5290611822565b9250505b8080610d6190611822565b915050610d02565b5060008167ffffffffffffffff811115610d8657610d8561113f565b5b604051908082528060200260200182016040528015610db45781602001602082028036833780820191505090505b5090506000805b600080549050811015610e425760008181548110610ddc57610ddb611407565b5b906000526020600020906004020160020160149054906101000a900460ff1615610e2f5780838381518110610e1457610e13611407565b5b6020026020010181815250508180610e2b90611822565b9250505b8080610e3a90611822565b915050610dbb565b5081935050505090565b6000808281548110610e6157610e60611407565b5b9060005260206000209060040201905060018160020160146101000a81548160ff0219169083151502179055507f5390c03f0883ef98a483781a0002e5b41c9a8fe911e3625f577067d17520fbda82604051610ebd919061130c565b60405180910390a15050565b6000604051905090565b600080fd5b600080fd5b6000819050919050565b610ef081610edd565b8114610efb57600080fd5b50565b600081359050610f0d81610ee7565b92915050565b600060208284031215610f2957610f28610ed3565b5b6000610f3784828501610efe565b91505092915050565b610f4981610edd565b82525050565b600081519050919050565b600082825260208201905092915050565b60005b83811015610f89578082015181840152602081019050610f6e565b60008484015250505050565b6000601f19601f8301169050919050565b6000610fb182610f4f565b610fbb8185610f5a565b9350610fcb818560208601610f6b565b610fd481610f95565b840191505092915050565b600073ffffffffffffffffffffffffffffffffffffffff82169050919050565b600061100a82610fdf565b9050919050565b61101a81610fff565b82525050565b60008115159050919050565b61103581611020565b82525050565b6000819050919050565b61104e8161103b565b82525050565b600060a0820190506110696000830188610f40565b818103602083015261107b8187610fa6565b905061108a6040830186611011565b611097606083018561102c565b6110a46080830184611045565b9695505050505050565b6110b78161103b565b81146110c257600080fd5b50565b6000813590506110d4816110ae565b92915050565b600080604083850312156110f1576110f0610ed3565b5b60006110ff85828601610efe565b9250506020611110858286016110c5565b9150509250929050565b600060208201905061112f6000830184611045565b92915050565b600080fd5b600080fd5b7f4e487b7100000000000000000000000000000000000000000000000000000000600052604160045260246000fd5b61117782610f95565b810181811067ffffffffffffffff821117156111965761119561113f565b5b80604052505050565b60006111a9610ec9565b90506111b5828261116e565b919050565b600067ffffffffffffffff8211156111d5576111d461113f565b5b6111de82610f95565b9050602081019050919050565b82818337600083830152505050565b600061120d611208846111ba565b61119f565b9050828152602081018484840111156112295761122861113a565b5b6112348482856111eb565b509392505050565b600082601f83011261125157611250611135565b5b81356112618482602086016111fa565b91505092915050565b6000602082840312156112805761127f610ed3565b5b600082013567ffffffffffffffff81111561129e5761129d610ed8565b5b6112aa8482850161123c565b91505092915050565b6112bc81610fff565b81146112c757600080fd5b50565b6000813590506112d9816112b3565b92915050565b6000602082840312156112f5576112f4610ed3565b5b6000611303848285016112ca565b91505092915050565b60006020820190506113216000830184610f40565b92915050565b600081519050919050565b600082825260208201905092915050565b6000819050602082019050919050565b61135c81610edd565b82525050565b600061136e8383611353565b60208301905092915050565b6000602082019050919050565b600061139282611327565b61139c8185611332565b93506113a783611343565b8060005b838110156113d85781516113bf8882611362565b97506113ca8361137a565b9250506001810190506113ab565b5085935050505092915050565b600060208201905081810360008301526113ff8184611387565b905092915050565b7f4e487b7100000000000000000000000000000000000000000000000000000000600052603260045260246000fd5b7f4e487b7100000000000000000000000000000000000000000000000000000000600052602260045260246000fd5b6000600282049050600182168061147d57607f821691505b6020821081036114905761148f611436565b5b50919050565b7f4e487b7100000000000000000000000000000000000000000000000000000000600052601160045260246000fd5b60006114d08261103b565b91506114db8361103b565b92508282019050828112156000831216838212600084121516171561150357611502611496565b5b92915050565b600060408201905061151e6000830185610f40565b61152b6020830184611045565b9392505050565b60008190508160005260206000209050919050565b60006020601f8301049050919050565b600082821b905092915050565b6000600883026115947fffffffffffffffffffffffffffffffffffffffffffffffffffffffffffffffff82611557565b61159e8683611557565b95508019841693508086168417925050509392505050565b6000819050919050565b60006115db6115d66115d184610edd565b6115b6565b610edd565b9050919050565b6000819050919050565b6115f5836115c0565b611609611601826115e2565b848454611564565b825550505050565b600090565b61161e611611565b6116298184846115ec565b505050565b5b8181101561164d57611642600082611616565b60018101905061162f565b5050565b601f8211156116925761166381611532565b61166c84611547565b8101602085101561167b578190505b61168f61168785611547565b83018261162e565b50505b505050565b600082821c905092915050565b60006116b560001984600802611697565b1980831691505092915050565b60006116ce83836116a4565b9150826002028217905092915050565b6116e782610f4f565b67ffffffffffffffff811115611700576116ff61113f565b5b61170a8254611465565b611715828285611651565b600060209050601f8311600181146117485760008415611736578287015190505b61174085826116c2565b8655506117a8565b601f19841661175686611532565b60005b8281101561177e57848901518255600182019150602085019450602081019050611759565b8683101561179b5784890151611797601f8916826116a4565b8355505b6001600288020188555050505b505050505050565b60006117bb82610edd565b91506117c683610edd565b92508282039050818111156117de576117dd611496565b5b92915050565b60006060820190506117f96000830186610f40565b6118066020830185611011565b81810360408301526118188184610fa6565b9050949350505050565b600061182d82610edd565b91507fffffffffffffffffffffffffffffffffffffffffffffffffffffffffffffffff820361185f5761185e611496565b5b60018201905091905056fea26469706673582212205bf872829c4d40f7cd97cd457d9de6a569873f4b19fe75e925bffc55e53f45e764736f6c63430008130033",
  "immutableReferences": {},
  "source": "// SPDX-License-Identifier: UNLICENSED\n\npragma solidity 0.8.19;\n\ncontract ContentContract {\n    struct Content {\n        uint id;\n        string data;\n        address author;\n        bool isFlagged;\n        int score;\n    }\n\n    Content[] public contents;\n    int public flagThreshold = -10;\n\n    event ContentCreated(uint contentId, address author, string data);\n    event ContentFlagged(uint contentId);\n    event ScoreUpdated(uint contentId, int score);\n\n    function createContent(string memory _data) public {\n        contents.push(Content({\n            id: contents.length,\n            data: _data,\n            author: msg.sender,\n            isFlagged: false,\n            score: 0\n        }));\n        uint id = contents.length - 1;\n        emit ContentCreated(id, msg.sender, _data);\n    }\n\n    function updateScore(uint _id, int _change) public {\n        Content storage content = contents[_id];\n        content.score += _change;\n        emit ScoreUpdated(_id, content.score);\n        if (content.score <= flagThreshold) {\n            flagContent(_id);\n        }\n    }\n\n    function flagContent(uint _id) internal {\n        Content storage content = contents[_id];\n        content.isFlagged = true;\n        emit ContentFlagged(_id);\n    }\n\n    function getContentsCount() public view returns (uint) {\n        return contents.length;\n    }\n\n    function getContent(uint _id) public view returns (uint, string memory, address, bool, int) {\n        Content memory content = contents[_id];\n        return (content.id, content.data, content.author, content.isFlagged, content.score);\n    }\n\n    function getFlaggedContents() public view returns (uint[] memory) {\n        uint flaggedCount = 0;\n        for (uint i = 0; i < contents.length; i++) {\n            if (contents[i].isFlagged) {\n                flaggedCount++;\n            }\n        }\n        uint[] memory flaggedContents = new uint[](flaggedCount);\n        uint index = 0;\n        for (uint i = 0; i < contents.length; i++) {\n            if (contents[i].isFlagged) {\n                flaggedContents[index] = i;\n                index++;\n            }\n        }\n        return flaggedContents;\n    }\n\n    function getAuthorContents(address _author) public view returns (uint[] memory) {\n        uint authorCount = 0;\n        for (uint i = 0; i < contents.length; i++) {\n            if (contents[i].author == _author) {\n                authorCount++;\n            }\n        }\n        uint[] memory authorContents = new uint[](authorCount);\n        uint index = 0;\n        for (uint i = 0; i < contents.length; i++) {\n            if (contents[i].author == _author) {\n                authorContents[index] = i;\n                index++;\n            }\n        }\n        return authorContents;\n    }\n\n    function getAuthorFlaggedContents(address _author) public view returns (uint[] memory) {\n        uint authorFlaggedCount = 0;\n        for (uint i = 0; i < contents.length; i++) {\n            if (contents[i].author == _author && contents[i].isFlagged) {\n                authorFlaggedCount++;\n            }\n        }\n        uint[] memory authorFlaggedContents = new uint[](authorFlaggedCount);\n        uint index = 0;\n        for (uint i = 0; i < contents.length; i++) {\n            if (contents[i].author == _author && contents[i].isFlagged) {\n                authorFlaggedContents[index] = i;\n                index++;\n            }\n        }\n        return authorFlaggedContents;\n    }\n\n    function getAuthorScore(address _author) public view returns (int) {\n        int authorScore = 0;\n        for (uint i = 0; i < contents.length; i++) {\n            if (contents[i].author == _author) {\n                authorScore += contents[i].score;\n            }\n        }\n        return authorScore;\n    }\n\n    function getAuthorFlaggedScore(address _author) public view returns (int) {\n        int authorFlaggedScore = 0;\n        for (uint i = 0; i < contents.length; i++) {\n            if (contents[i].author == _author && contents[i].isFlagged) {\n                authorFlaggedScore += contents[i].score;\n            }\n        }\n        return authorFlaggedScore;\n    }\n}",
  "sourcePath": "/Users/jochen/Projects/School/Bp/poc/contracts/ContentContract.sol",
  "compiler": {
    "name": "solc",
    "version": "0.8.19+commit.7dd6d404.Emscripten.clang"
  },
  "schemaVersion": "3.4.16",
  "updatedAt": "2024-05-04T21:40:29.863Z",
  "networkType": "ethereum",
  "devdoc": {
    "kind": "dev",
    "methods": {},
    "version": 1
  },
  "userdoc": {
    "kind": "user",
    "methods": {},
    "version": 1
  }
}