{
  "contractName": "ContentContract",
  "abi": [
    {
      "inputs": [
        {
          "internalType": "address",
          "name": "_reputationAddress",
          "type": "address"
        }
      ],
      "stateMutability": "nonpayable",
      "type": "constructor"
    },
    {
      "anonymous": false,
      "inputs": [
        {
          "indexed": false,
          "internalType": "uint256",
          "name": "contentId",
          "type": "uint256"
        },
        {
          "indexed": false,
          "internalType": "address",
          "name": "author",
          "type": "address"
        },
        {
          "indexed": false,
          "internalType": "string",
          "name": "data",
          "type": "string"
        }
      ],
      "name": "ContentCreated",
      "type": "event"
    },
    {
      "anonymous": false,
      "inputs": [
        {
          "indexed": false,
          "internalType": "uint256",
          "name": "contentId",
          "type": "uint256"
        }
      ],
      "name": "ContentFlagged",
      "type": "event"
    },
    {
      "anonymous": false,
      "inputs": [
        {
          "indexed": false,
          "internalType": "uint256",
          "name": "contentId",
          "type": "uint256"
        }
      ],
      "name": "ContentRecovered",
      "type": "event"
    },
    {
      "anonymous": false,
      "inputs": [
        {
          "indexed": false,
          "internalType": "uint256",
          "name": "contentId",
          "type": "uint256"
        },
        {
          "indexed": false,
          "internalType": "int256",
          "name": "score",
          "type": "int256"
        }
      ],
      "name": "ScoreUpdated",
      "type": "event"
    },
    {
      "inputs": [
        {
          "internalType": "uint256",
          "name": "",
          "type": "uint256"
        }
      ],
      "name": "contents",
      "outputs": [
        {
          "internalType": "uint256",
          "name": "id",
          "type": "uint256"
        },
        {
          "internalType": "string",
          "name": "data",
          "type": "string"
        },
        {
          "internalType": "address",
          "name": "author",
          "type": "address"
        },
        {
          "internalType": "bool",
          "name": "isFlagged",
          "type": "bool"
        },
        {
          "internalType": "int256",
          "name": "score",
          "type": "int256"
        },
        {
          "internalType": "bool",
          "name": "finalDecision",
          "type": "bool"
        }
      ],
      "stateMutability": "view",
      "type": "function",
      "constant": true
    },
    {
      "inputs": [],
      "name": "flagThreshold",
      "outputs": [
        {
          "internalType": "int256",
          "name": "",
          "type": "int256"
        }
      ],
      "stateMutability": "view",
      "type": "function",
      "constant": true
    },
    {
      "inputs": [],
      "name": "recoveryThreshold",
      "outputs": [
        {
          "internalType": "int256",
          "name": "",
          "type": "int256"
        }
      ],
      "stateMutability": "view",
      "type": "function",
      "constant": true
    },
    {
      "inputs": [
        {
          "internalType": "string",
          "name": "_data",
          "type": "string"
        }
      ],
      "name": "createContent",
      "outputs": [],
      "stateMutability": "nonpayable",
      "type": "function"
    },
    {
      "inputs": [
        {
          "internalType": "uint256",
          "name": "_id",
          "type": "uint256"
        },
        {
          "internalType": "int256",
          "name": "_change",
          "type": "int256"
        }
      ],
      "name": "updateScore",
      "outputs": [],
      "stateMutability": "nonpayable",
      "type": "function"
    },
    {
      "inputs": [],
      "name": "getContentsCount",
      "outputs": [
        {
          "internalType": "uint256",
          "name": "",
          "type": "uint256"
        }
      ],
      "stateMutability": "view",
      "type": "function",
      "constant": true
    },
    {
      "inputs": [
        {
          "internalType": "uint256",
          "name": "_id",
          "type": "uint256"
        }
      ],
      "name": "getAuthor",
      "outputs": [
        {
          "internalType": "address",
          "name": "",
          "type": "address"
        }
      ],
      "stateMutability": "view",
      "type": "function",
      "constant": true
    },
    {
      "inputs": [
        {
          "internalType": "uint256",
          "name": "_id",
          "type": "uint256"
        }
      ],
      "name": "isContentFlagged",
      "outputs": [
        {
          "internalType": "bool",
          "name": "",
          "type": "bool"
        }
      ],
      "stateMutability": "view",
      "type": "function",
      "constant": true
    },
    {
      "inputs": [
        {
          "internalType": "address",
          "name": "_author",
          "type": "address"
        }
      ],
      "name": "getAuthorContents",
      "outputs": [
        {
          "internalType": "uint256[]",
          "name": "",
          "type": "uint256[]"
        }
      ],
      "stateMutability": "view",
      "type": "function",
      "constant": true
    },
    {
      "inputs": [
        {
          "internalType": "address",
          "name": "_author",
          "type": "address"
        }
      ],
      "name": "getAuthorScore",
      "outputs": [
        {
          "internalType": "int256",
          "name": "",
          "type": "int256"
        }
      ],
      "stateMutability": "view",
      "type": "function",
      "constant": true
    },
    {
      "inputs": [
        {
          "internalType": "uint256",
          "name": "_id",
          "type": "uint256"
        }
      ],
      "name": "getContent",
      "outputs": [
        {
          "internalType": "uint256",
          "name": "",
          "type": "uint256"
        },
        {
          "internalType": "string",
          "name": "",
          "type": "string"
        },
        {
          "internalType": "address",
          "name": "",
          "type": "address"
        },
        {
          "internalType": "bool",
          "name": "",
          "type": "bool"
        },
        {
          "internalType": "int256",
          "name": "",
          "type": "int256"
        },
        {
          "internalType": "bool",
          "name": "",
          "type": "bool"
        }
      ],
      "stateMutability": "view",
      "type": "function",
      "constant": true
    }
  ],
  "bytecode": "0x60806040527ffffffffffffffffffffffffffffffffffffffffffffffffffffffffffffffff66002557ffffffffffffffffffffffffffffffffffffffffffffffffffffffffffffffffb6003553480156200005957600080fd5b50604051620019f4380380620019f483398181016040528101906200007f919062000131565b80600460006101000a81548173ffffffffffffffffffffffffffffffffffffffff021916908373ffffffffffffffffffffffffffffffffffffffff1602179055505062000163565b600080fd5b600073ffffffffffffffffffffffffffffffffffffffff82169050919050565b6000620000f982620000cc565b9050919050565b6200010b81620000ec565b81146200011757600080fd5b50565b6000815190506200012b8162000100565b92915050565b6000602082840312156200014a5762000149620000c7565b5b60006200015a848285016200011a565b91505092915050565b61188180620001736000396000f3fe608060405234801561001057600080fd5b50600436106100a95760003560e01c806352535ce61161007157806352535ce6146101575780637d2a9610146101875780639e2b8488146101a5578063b5ecf912146101d5578063c2dca6ab1461020a578063f4b4b1301461023a576100a9565b80630b7ad54c146100ae57806316437f06146100e35780631c8123d6146100ff578063242ba5cc1461011d578063497cc8411461013b575b600080fd5b6100c860048036038101906100c39190610d7c565b61026a565b6040516100da96959493929190610ebd565b60405180910390f35b6100fd60048036038101906100f89190610f51565b61040a565b005b6101076106c5565b6040516101149190610f91565b60405180910390f35b6101256106cb565b6040516101329190610f91565b60405180910390f35b610155600480360381019061015091906110e1565b6106d1565b005b610171600480360381019061016c9190611156565b6108b9565b60405161017e9190610f91565b60405180910390f35b61018f6109c4565b60405161019c9190611183565b60405180910390f35b6101bf60048036038101906101ba9190610d7c565b6109d0565b6040516101cc919061119e565b60405180910390f35b6101ef60048036038101906101ea9190610d7c565b610a1e565b60405161020196959493929190610ebd565b60405180910390f35b610224600480360381019061021f9190610d7c565b610b2c565b60405161023191906111b9565b60405180910390f35b610254600480360381019061024f9190611156565b610b67565b6040516102619190611292565b60405180910390f35b600060606000806000806000808881548110610289576102886112b4565b5b90600052602060002090600502016040518060c0016040529081600082015481526020016001820180546102bc90611312565b80601f01602080910402602001604051908101604052809291908181526020018280546102e890611312565b80156103355780601f1061030a57610100808354040283529160200191610335565b820191906000526020600020905b81548152906001019060200180831161031857829003601f168201915b505050505081526020016002820160009054906101000a900473ffffffffffffffffffffffffffffffffffffffff1673ffffffffffffffffffffffffffffffffffffffff1673ffffffffffffffffffffffffffffffffffffffff1681526020016002820160149054906101000a900460ff16151515158152602001600382015481526020016004820160009054906101000a900460ff1615151515815250509050806000015181602001518260400151836060015184608001518560a001519650965096509650965096505091939550919395565b6000805490508210610451576040517f08c379a00000000000000000000000000000000000000000000000000000000081526004016104489061138f565b60405180910390fd5b6000808381548110610466576104656112b4565b5b906000526020600020906005020190508181600301600082825461048a91906113de565b925050819055507fc8720a01b4a2a659599d6343a0af2df700e1159aef04fab4d408ff0f39dfd1e08382600301546040516104c6929190611422565b60405180910390a16002548160030154131580156104f357508060020160149054906101000a900460ff16155b156105d95761050183610bfe565b600460009054906101000a900473ffffffffffffffffffffffffffffffffffffffff1673ffffffffffffffffffffffffffffffffffffffff1663f5b3ceda8260020160009054906101000a900473ffffffffffffffffffffffffffffffffffffffff167ffffffffffffffffffffffffffffffffffffffffffffffffffffffffffffffffb6040518363ffffffff1660e01b81526004016105a2929190611490565b600060405180830381600087803b1580156105bc57600080fd5b505af11580156105d0573d6000803e3d6000fd5b505050506106c0565b60035481600301541380156105fc57508060020160149054906101000a900460ff165b156106bf5761060a83610c98565b600460009054906101000a900473ffffffffffffffffffffffffffffffffffffffff1673ffffffffffffffffffffffffffffffffffffffff1663f5b3ceda8260020160009054906101000a900473ffffffffffffffffffffffffffffffffffffffff1660036040518363ffffffff1660e01b815260040161068c9291906114f4565b600060405180830381600087803b1580156106a657600080fd5b505af11580156106ba573d6000803e3d6000fd5b505050505b5b505050565b60035481565b60025481565b60006040518060c0016040528060008054905081526020018381526020013373ffffffffffffffffffffffffffffffffffffffff1681526020016000151581526020016000815260200160001515815250908060018154018082558091505060019003906000526020600020906005020160009091909190915060008201518160000155602082015181600101908161076a91906116bf565b5060408201518160020160006101000a81548173ffffffffffffffffffffffffffffffffffffffff021916908373ffffffffffffffffffffffffffffffffffffffff16021790555060608201518160020160146101000a81548160ff0219169083151502179055506080820151816003015560a08201518160040160006101000a81548160ff0219169083151502179055505050600060016000805490506108129190611791565b9050600160003373ffffffffffffffffffffffffffffffffffffffff1673ffffffffffffffffffffffffffffffffffffffff1681526020019081526020016000208190806001815401808255809150506001900390600052602060002001600090919091909150557fbacf9f620fd10df5b39931f2a3012e753be545aba5d7642b9bdb59b527709f1d8133846040516108ad939291906117c5565b60405180910390a15050565b600080600160008473ffffffffffffffffffffffffffffffffffffffff1673ffffffffffffffffffffffffffffffffffffffff16815260200190815260200160002080548060200260200160405190810160405280929190818152602001828054801561094557602002820191906000526020600020905b815481526020019060010190808311610931575b505050505090506000805b82518110156109b957600083828151811061096e5761096d6112b4565b5b602002602001015181548110610987576109866112b4565b5b906000526020600020906005020160030154826109a491906113de565b915080806109b190611803565b915050610950565b508092505050919050565b60008080549050905090565b60008082815481106109e5576109e46112b4565b5b906000526020600020906005020160020160009054906101000a900473ffffffffffffffffffffffffffffffffffffffff169050919050565b60008181548110610a2e57600080fd5b9060005260206000209060050201600091509050806000015490806001018054610a5790611312565b80601f0160208091040260200160405190810160405280929190818152602001828054610a8390611312565b8015610ad05780601f10610aa557610100808354040283529160200191610ad0565b820191906000526020600020905b815481529060010190602001808311610ab357829003601f168201915b5050505050908060020160009054906101000a900473ffffffffffffffffffffffffffffffffffffffff16908060020160149054906101000a900460ff16908060030154908060040160009054906101000a900460ff16905086565b6000808281548110610b4157610b406112b4565b5b906000526020600020906005020160020160149054906101000a900460ff169050919050565b6060600160008373ffffffffffffffffffffffffffffffffffffffff1673ffffffffffffffffffffffffffffffffffffffff168152602001908152602001600020805480602002602001604051908101604052809291908181526020018280548015610bf257602002820191906000526020600020905b815481526020019060010190808311610bde575b50505050509050919050565b6000808281548110610c1357610c126112b4565b5b9060005260206000209060050201905060018160020160146101000a81548160ff02191690831515021790555060018160040160006101000a81548160ff0219169083151502179055507f5390c03f0883ef98a483781a0002e5b41c9a8fe911e3625f577067d17520fbda82604051610c8c9190611183565b60405180910390a15050565b6000808281548110610cad57610cac6112b4565b5b9060005260206000209060050201905060008160020160146101000a81548160ff02191690831515021790555060008160040160006101000a81548160ff0219169083151502179055507f66e364811e06dfe077a3d5ea255683772d681a41b17d5191ed55623ad290dae682604051610d269190611183565b60405180910390a15050565b6000604051905090565b600080fd5b600080fd5b6000819050919050565b610d5981610d46565b8114610d6457600080fd5b50565b600081359050610d7681610d50565b92915050565b600060208284031215610d9257610d91610d3c565b5b6000610da084828501610d67565b91505092915050565b610db281610d46565b82525050565b600081519050919050565b600082825260208201905092915050565b60005b83811015610df2578082015181840152602081019050610dd7565b60008484015250505050565b6000601f19601f8301169050919050565b6000610e1a82610db8565b610e248185610dc3565b9350610e34818560208601610dd4565b610e3d81610dfe565b840191505092915050565b600073ffffffffffffffffffffffffffffffffffffffff82169050919050565b6000610e7382610e48565b9050919050565b610e8381610e68565b82525050565b60008115159050919050565b610e9e81610e89565b82525050565b6000819050919050565b610eb781610ea4565b82525050565b600060c082019050610ed26000830189610da9565b8181036020830152610ee48188610e0f565b9050610ef36040830187610e7a565b610f006060830186610e95565b610f0d6080830185610eae565b610f1a60a0830184610e95565b979650505050505050565b610f2e81610ea4565b8114610f3957600080fd5b50565b600081359050610f4b81610f25565b92915050565b60008060408385031215610f6857610f67610d3c565b5b6000610f7685828601610d67565b9250506020610f8785828601610f3c565b9150509250929050565b6000602082019050610fa66000830184610eae565b92915050565b600080fd5b600080fd5b7f4e487b7100000000000000000000000000000000000000000000000000000000600052604160045260246000fd5b610fee82610dfe565b810181811067ffffffffffffffff8211171561100d5761100c610fb6565b5b80604052505050565b6000611020610d32565b905061102c8282610fe5565b919050565b600067ffffffffffffffff82111561104c5761104b610fb6565b5b61105582610dfe565b9050602081019050919050565b82818337600083830152505050565b600061108461107f84611031565b611016565b9050828152602081018484840111156110a05761109f610fb1565b5b6110ab848285611062565b509392505050565b600082601f8301126110c8576110c7610fac565b5b81356110d8848260208601611071565b91505092915050565b6000602082840312156110f7576110f6610d3c565b5b600082013567ffffffffffffffff81111561111557611114610d41565b5b611121848285016110b3565b91505092915050565b61113381610e68565b811461113e57600080fd5b50565b6000813590506111508161112a565b92915050565b60006020828403121561116c5761116b610d3c565b5b600061117a84828501611141565b91505092915050565b60006020820190506111986000830184610da9565b92915050565b60006020820190506111b36000830184610e7a565b92915050565b60006020820190506111ce6000830184610e95565b92915050565b600081519050919050565b600082825260208201905092915050565b6000819050602082019050919050565b61120981610d46565b82525050565b600061121b8383611200565b60208301905092915050565b6000602082019050919050565b600061123f826111d4565b61124981856111df565b9350611254836111f0565b8060005b8381101561128557815161126c888261120f565b975061127783611227565b925050600181019050611258565b5085935050505092915050565b600060208201905081810360008301526112ac8184611234565b905092915050565b7f4e487b7100000000000000000000000000000000000000000000000000000000600052603260045260246000fd5b7f4e487b7100000000000000000000000000000000000000000000000000000000600052602260045260246000fd5b6000600282049050600182168061132a57607f821691505b60208210810361133d5761133c6112e3565b5b50919050565b7f436f6e74656e7420494420646f6573206e6f742065786973742e000000000000600082015250565b6000611379601a83610dc3565b915061138482611343565b602082019050919050565b600060208201905081810360008301526113a88161136c565b9050919050565b7f4e487b7100000000000000000000000000000000000000000000000000000000600052601160045260246000fd5b60006113e982610ea4565b91506113f483610ea4565b92508282019050828112156000831216838212600084121516171561141c5761141b6113af565b5b92915050565b60006040820190506114376000830185610da9565b6114446020830184610eae565b9392505050565b6000819050919050565b6000819050919050565b600061147a6114756114708461144b565b611455565b610ea4565b9050919050565b61148a8161145f565b82525050565b60006040820190506114a56000830185610e7a565b6114b26020830184611481565b9392505050565b6000819050919050565b60006114de6114d96114d4846114b9565b611455565b610ea4565b9050919050565b6114ee816114c3565b82525050565b60006040820190506115096000830185610e7a565b61151660208301846114e5565b9392505050565b60008190508160005260206000209050919050565b60006020601f8301049050919050565b600082821b905092915050565b60006008830261157f7fffffffffffffffffffffffffffffffffffffffffffffffffffffffffffffffff82611542565b6115898683611542565b95508019841693508086168417925050509392505050565b60006115bc6115b76115b284610d46565b611455565b610d46565b9050919050565b6000819050919050565b6115d6836115a1565b6115ea6115e2826115c3565b84845461154f565b825550505050565b600090565b6115ff6115f2565b61160a8184846115cd565b505050565b5b8181101561162e576116236000826115f7565b600181019050611610565b5050565b601f821115611673576116448161151d565b61164d84611532565b8101602085101561165c578190505b61167061166885611532565b83018261160f565b50505b505050565b600082821c905092915050565b600061169660001984600802611678565b1980831691505092915050565b60006116af8383611685565b9150826002028217905092915050565b6116c882610db8565b67ffffffffffffffff8111156116e1576116e0610fb6565b5b6116eb8254611312565b6116f6828285611632565b600060209050601f8311600181146117295760008415611717578287015190505b61172185826116a3565b865550611789565b601f1984166117378661151d565b60005b8281101561175f5784890151825560018201915060208501945060208101905061173a565b8683101561177c5784890151611778601f891682611685565b8355505b6001600288020188555050505b505050505050565b600061179c82610d46565b91506117a783610d46565b92508282039050818111156117bf576117be6113af565b5b92915050565b60006060820190506117da6000830186610da9565b6117e76020830185610e7a565b81810360408301526117f98184610e0f565b9050949350505050565b600061180e82610d46565b91507fffffffffffffffffffffffffffffffffffffffffffffffffffffffffffffffff82036118405761183f6113af565b5b60018201905091905056fea264697066735822122076d6a022d36669efd55ba98b5a5fcd6daae46c565e5105e6568eafc075e5459464736f6c63430008130033",
  "immutableReferences": {},
  "source": "// SPDX-License-Identifier: UNLICENSED\npragma solidity 0.8.19;\n\nimport \"./ReputationSystemContract.sol\";\n\ncontract ContentContract {\n    struct Content {\n        uint id;\n        string data;\n        address author;\n        bool isFlagged;\n        int score;\n        bool finalDecision;\n    }\n\n    Content[] public contents;\n    mapping(address => uint[]) private authorContents;\n    int public flagThreshold = -10;\n    int public recoveryThreshold = -5;\n    ReputationSystemContract reputationSystem;\n\n    event ContentCreated(uint contentId, address author, string data);\n    event ContentFlagged(uint contentId);\n    event ContentRecovered(uint contentId);\n    event ScoreUpdated(uint contentId, int score);\n\n    constructor(address _reputationAddress) {\n        reputationSystem = ReputationSystemContract(_reputationAddress);\n    }\n\n    function createContent(string memory _data) public {\n        contents.push(Content({\n            id: contents.length,\n            data: _data,\n            author: msg.sender,\n            isFlagged: false,\n            score: 0,\n            finalDecision: false\n        }));\n        uint id = contents.length - 1;\n        authorContents[msg.sender].push(id);\n        emit ContentCreated(id, msg.sender, _data);\n    }\n\n    function updateScore(uint _id, int _change) public {\n        require(_id < contents.length, \"Content ID does not exist.\");\n        Content storage content = contents[_id];\n        content.score += _change;\n        emit ScoreUpdated(_id, content.score);\n\n        if (content.score <= flagThreshold && !content.isFlagged) {\n            flagContent(_id);\n            reputationSystem.adjustReputation(content.author, -5); // Penalize on flagging\n        } else if (content.score > recoveryThreshold && content.isFlagged) {\n            recoverContent(_id);\n            reputationSystem.adjustReputation(content.author, 3); // Reward on recovery\n        }\n    }\n\n    function flagContent(uint _id) internal {\n        Content storage content = contents[_id];\n        content.isFlagged = true;\n        content.finalDecision = true;\n        emit ContentFlagged(_id);\n    }\n\n    function recoverContent(uint _id) internal {\n        Content storage content = contents[_id];\n        content.isFlagged = false;\n        content.finalDecision = false;\n        emit ContentRecovered(_id);\n    }\n\n    function getContentsCount() public view returns (uint) {\n        return contents.length;\n    }\n\n    function getAuthor(uint _id) public view returns (address) {\n        return contents[_id].author;\n    }\n\n    function isContentFlagged(uint _id) public view returns (bool) {\n        return contents[_id].isFlagged;\n    }\n\n    function getAuthorContents(address _author) public view returns (uint[] memory) {\n        return authorContents[_author];\n    }\n\n    function getAuthorScore(address _author) public view returns (int) {\n        uint[] memory authorContentIds = authorContents[_author];\n        int totalScore = 0;\n        for (uint i = 0; i < authorContentIds.length; i++) {\n            totalScore += contents[authorContentIds[i]].score;\n        }\n        return totalScore;\n    }\n\n    function getContent(uint _id) public view returns (uint, string memory, address, bool, int, bool) {\n        Content memory content = contents[_id];\n        return (content.id, content.data, content.author, content.isFlagged, content.score, content.finalDecision);\n    }\n}\n",
  "sourcePath": "/Users/jochen/Projects/School/Bp/poc/contracts/ContentContract.sol",
  "compiler": {
    "name": "solc",
    "version": "0.8.19+commit.7dd6d404.Emscripten.clang"
  },
  "schemaVersion": "3.4.16",
  "updatedAt": "2024-05-06T22:40:47.380Z",
  "networkType": "ethereum",
  "devdoc": {
    "kind": "dev",
    "methods": {},
    "version": 1
  },
  "userdoc": {
    "kind": "user",
    "methods": {},
    "version": 1
  }
}