{
  "contractName": "ContentContract",
  "abi": [
    {
      "inputs": [
        {
          "internalType": "address",
          "name": "_reputationAddress",
          "type": "address"
        }
      ],
      "stateMutability": "nonpayable",
      "type": "constructor"
    },
    {
      "anonymous": false,
      "inputs": [
        {
          "indexed": false,
          "internalType": "uint256",
          "name": "contentId",
          "type": "uint256"
        },
        {
          "indexed": false,
          "internalType": "address",
          "name": "author",
          "type": "address"
        },
        {
          "indexed": false,
          "internalType": "string",
          "name": "data",
          "type": "string"
        }
      ],
      "name": "ContentCreated",
      "type": "event"
    },
    {
      "anonymous": false,
      "inputs": [
        {
          "indexed": false,
          "internalType": "uint256",
          "name": "contentId",
          "type": "uint256"
        }
      ],
      "name": "ContentFlagged",
      "type": "event"
    },
    {
      "anonymous": false,
      "inputs": [
        {
          "indexed": false,
          "internalType": "uint256",
          "name": "contentId",
          "type": "uint256"
        }
      ],
      "name": "ContentRecovered",
      "type": "event"
    },
    {
      "anonymous": false,
      "inputs": [
        {
          "indexed": false,
          "internalType": "uint256",
          "name": "contentId",
          "type": "uint256"
        },
        {
          "indexed": false,
          "internalType": "int256",
          "name": "score",
          "type": "int256"
        }
      ],
      "name": "ScoreUpdated",
      "type": "event"
    },
    {
      "inputs": [
        {
          "internalType": "uint256",
          "name": "",
          "type": "uint256"
        }
      ],
      "name": "contents",
      "outputs": [
        {
          "internalType": "uint256",
          "name": "id",
          "type": "uint256"
        },
        {
          "internalType": "string",
          "name": "data",
          "type": "string"
        },
        {
          "internalType": "address",
          "name": "author",
          "type": "address"
        },
        {
          "internalType": "bool",
          "name": "isFlagged",
          "type": "bool"
        },
        {
          "internalType": "int256",
          "name": "score",
          "type": "int256"
        },
        {
          "internalType": "bool",
          "name": "finalDecision",
          "type": "bool"
        }
      ],
      "stateMutability": "view",
      "type": "function",
      "constant": true
    },
    {
      "inputs": [],
      "name": "flagThreshold",
      "outputs": [
        {
          "internalType": "int256",
          "name": "",
          "type": "int256"
        }
      ],
      "stateMutability": "view",
      "type": "function",
      "constant": true
    },
    {
      "inputs": [],
      "name": "recoveryThreshold",
      "outputs": [
        {
          "internalType": "int256",
          "name": "",
          "type": "int256"
        }
      ],
      "stateMutability": "view",
      "type": "function",
      "constant": true
    },
    {
      "inputs": [
        {
          "internalType": "string",
          "name": "_data",
          "type": "string"
        }
      ],
      "name": "createContent",
      "outputs": [],
      "stateMutability": "nonpayable",
      "type": "function"
    },
    {
      "inputs": [
        {
          "internalType": "uint256",
          "name": "_id",
          "type": "uint256"
        },
        {
          "internalType": "int256",
          "name": "_change",
          "type": "int256"
        }
      ],
      "name": "updateScore",
      "outputs": [],
      "stateMutability": "nonpayable",
      "type": "function"
    },
    {
      "inputs": [],
      "name": "getContentsCount",
      "outputs": [
        {
          "internalType": "uint256",
          "name": "",
          "type": "uint256"
        }
      ],
      "stateMutability": "view",
      "type": "function",
      "constant": true
    },
    {
      "inputs": [
        {
          "internalType": "uint256",
          "name": "_id",
          "type": "uint256"
        }
      ],
      "name": "getAuthor",
      "outputs": [
        {
          "internalType": "address",
          "name": "",
          "type": "address"
        }
      ],
      "stateMutability": "view",
      "type": "function",
      "constant": true
    },
    {
      "inputs": [
        {
          "internalType": "uint256",
          "name": "_id",
          "type": "uint256"
        }
      ],
      "name": "isContentFlagged",
      "outputs": [
        {
          "internalType": "bool",
          "name": "",
          "type": "bool"
        }
      ],
      "stateMutability": "view",
      "type": "function",
      "constant": true
    }
  ],
  "bytecode": "0x60806040527ffffffffffffffffffffffffffffffffffffffffffffffffffffffffffffffff66001557ffffffffffffffffffffffffffffffffffffffffffffffffffffffffffffffffb6002553480156200005957600080fd5b50604051620014153803806200141583398181016040528101906200007f919062000131565b80600360006101000a81548173ffffffffffffffffffffffffffffffffffffffff021916908373ffffffffffffffffffffffffffffffffffffffff1602179055505062000163565b600080fd5b600073ffffffffffffffffffffffffffffffffffffffff82169050919050565b6000620000f982620000cc565b9050919050565b6200010b81620000ec565b81146200011757600080fd5b50565b6000815190506200012b8162000100565b92915050565b6000602082840312156200014a5762000149620000c7565b5b60006200015a848285016200011a565b91505092915050565b6112a280620001736000396000f3fe608060405234801561001057600080fd5b50600436106100885760003560e01c80637d2a96101161005b5780637d2a9610146101015780639e2b84881461011f578063b5ecf9121461014f578063c2dca6ab1461018457610088565b806316437f061461008d5780631c8123d6146100a9578063242ba5cc146100c7578063497cc841146100e5575b600080fd5b6100a760048036038101906100a29190610954565b6101b4565b005b6100b161046f565b6040516100be91906109a3565b60405180910390f35b6100cf610475565b6040516100dc91906109a3565b60405180910390f35b6100ff60048036038101906100fa9190610b04565b61047b565b005b6101096105fd565b6040516101169190610b5c565b60405180910390f35b61013960048036038101906101349190610b77565b610609565b6040516101469190610be5565b60405180910390f35b61016960048036038101906101649190610b77565b610657565b60405161017b96959493929190610c9a565b60405180910390f35b61019e60048036038101906101999190610b77565b610765565b6040516101ab9190610d02565b60405180910390f35b60008054905082106101fb576040517f08c379a00000000000000000000000000000000000000000000000000000000081526004016101f290610d69565b60405180910390fd5b60008083815481106102105761020f610d89565b5b90600052602060002090600502019050818160030160008282546102349190610de7565b925050819055507fc8720a01b4a2a659599d6343a0af2df700e1159aef04fab4d408ff0f39dfd1e0838260030154604051610270929190610e2b565b60405180910390a160015481600301541315801561029d57508060020160149054906101000a900460ff16155b15610383576102ab836107a0565b600360009054906101000a900473ffffffffffffffffffffffffffffffffffffffff1673ffffffffffffffffffffffffffffffffffffffff1663f5b3ceda8260020160009054906101000a900473ffffffffffffffffffffffffffffffffffffffff167ffffffffffffffffffffffffffffffffffffffffffffffffffffffffffffffffb6040518363ffffffff1660e01b815260040161034c929190610e99565b600060405180830381600087803b15801561036657600080fd5b505af115801561037a573d6000803e3d6000fd5b5050505061046a565b60025481600301541380156103a657508060020160149054906101000a900460ff165b15610469576103b48361083a565b600360009054906101000a900473ffffffffffffffffffffffffffffffffffffffff1673ffffffffffffffffffffffffffffffffffffffff1663f5b3ceda8260020160009054906101000a900473ffffffffffffffffffffffffffffffffffffffff1660036040518363ffffffff1660e01b8152600401610436929190610efd565b600060405180830381600087803b15801561045057600080fd5b505af1158015610464573d6000803e3d6000fd5b505050505b5b505050565b60025481565b60015481565b60006040518060c0016040528060008054905081526020018381526020013373ffffffffffffffffffffffffffffffffffffffff168152602001600015158152602001600081526020016000151581525090806001815401808255809150506001900390600052602060002090600502016000909190919091506000820151816000015560208201518160010190816105149190611128565b5060408201518160020160006101000a81548173ffffffffffffffffffffffffffffffffffffffff021916908373ffffffffffffffffffffffffffffffffffffffff16021790555060608201518160020160146101000a81548160ff0219169083151502179055506080820151816003015560a08201518160040160006101000a81548160ff0219169083151502179055505050600060016000805490506105bc91906111fa565b90507fbacf9f620fd10df5b39931f2a3012e753be545aba5d7642b9bdb59b527709f1d8133846040516105f19392919061122e565b60405180910390a15050565b60008080549050905090565b600080828154811061061e5761061d610d89565b5b906000526020600020906005020160020160009054906101000a900473ffffffffffffffffffffffffffffffffffffffff169050919050565b6000818154811061066757600080fd5b906000526020600020906005020160009150905080600001549080600101805461069090610f55565b80601f01602080910402602001604051908101604052809291908181526020018280546106bc90610f55565b80156107095780601f106106de57610100808354040283529160200191610709565b820191906000526020600020905b8154815290600101906020018083116106ec57829003601f168201915b5050505050908060020160009054906101000a900473ffffffffffffffffffffffffffffffffffffffff16908060020160149054906101000a900460ff16908060030154908060040160009054906101000a900460ff16905086565b600080828154811061077a57610779610d89565b5b906000526020600020906005020160020160149054906101000a900460ff169050919050565b60008082815481106107b5576107b4610d89565b5b9060005260206000209060050201905060018160020160146101000a81548160ff02191690831515021790555060018160040160006101000a81548160ff0219169083151502179055507f5390c03f0883ef98a483781a0002e5b41c9a8fe911e3625f577067d17520fbda8260405161082e9190610b5c565b60405180910390a15050565b600080828154811061084f5761084e610d89565b5b9060005260206000209060050201905060008160020160146101000a81548160ff02191690831515021790555060008160040160006101000a81548160ff0219169083151502179055507f66e364811e06dfe077a3d5ea255683772d681a41b17d5191ed55623ad290dae6826040516108c89190610b5c565b60405180910390a15050565b6000604051905090565b600080fd5b600080fd5b6000819050919050565b6108fb816108e8565b811461090657600080fd5b50565b600081359050610918816108f2565b92915050565b6000819050919050565b6109318161091e565b811461093c57600080fd5b50565b60008135905061094e81610928565b92915050565b6000806040838503121561096b5761096a6108de565b5b600061097985828601610909565b925050602061098a8582860161093f565b9150509250929050565b61099d8161091e565b82525050565b60006020820190506109b86000830184610994565b92915050565b600080fd5b600080fd5b6000601f19601f8301169050919050565b7f4e487b7100000000000000000000000000000000000000000000000000000000600052604160045260246000fd5b610a11826109c8565b810181811067ffffffffffffffff82111715610a3057610a2f6109d9565b5b80604052505050565b6000610a436108d4565b9050610a4f8282610a08565b919050565b600067ffffffffffffffff821115610a6f57610a6e6109d9565b5b610a78826109c8565b9050602081019050919050565b82818337600083830152505050565b6000610aa7610aa284610a54565b610a39565b905082815260208101848484011115610ac357610ac26109c3565b5b610ace848285610a85565b509392505050565b600082601f830112610aeb57610aea6109be565b5b8135610afb848260208601610a94565b91505092915050565b600060208284031215610b1a57610b196108de565b5b600082013567ffffffffffffffff811115610b3857610b376108e3565b5b610b4484828501610ad6565b91505092915050565b610b56816108e8565b82525050565b6000602082019050610b716000830184610b4d565b92915050565b600060208284031215610b8d57610b8c6108de565b5b6000610b9b84828501610909565b91505092915050565b600073ffffffffffffffffffffffffffffffffffffffff82169050919050565b6000610bcf82610ba4565b9050919050565b610bdf81610bc4565b82525050565b6000602082019050610bfa6000830184610bd6565b92915050565b600081519050919050565b600082825260208201905092915050565b60005b83811015610c3a578082015181840152602081019050610c1f565b60008484015250505050565b6000610c5182610c00565b610c5b8185610c0b565b9350610c6b818560208601610c1c565b610c74816109c8565b840191505092915050565b60008115159050919050565b610c9481610c7f565b82525050565b600060c082019050610caf6000830189610b4d565b8181036020830152610cc18188610c46565b9050610cd06040830187610bd6565b610cdd6060830186610c8b565b610cea6080830185610994565b610cf760a0830184610c8b565b979650505050505050565b6000602082019050610d176000830184610c8b565b92915050565b7f436f6e74656e7420494420646f6573206e6f742065786973742e000000000000600082015250565b6000610d53601a83610c0b565b9150610d5e82610d1d565b602082019050919050565b60006020820190508181036000830152610d8281610d46565b9050919050565b7f4e487b7100000000000000000000000000000000000000000000000000000000600052603260045260246000fd5b7f4e487b7100000000000000000000000000000000000000000000000000000000600052601160045260246000fd5b6000610df28261091e565b9150610dfd8361091e565b925082820190508281121560008312168382126000841215161715610e2557610e24610db8565b5b92915050565b6000604082019050610e406000830185610b4d565b610e4d6020830184610994565b9392505050565b6000819050919050565b6000819050919050565b6000610e83610e7e610e7984610e54565b610e5e565b61091e565b9050919050565b610e9381610e68565b82525050565b6000604082019050610eae6000830185610bd6565b610ebb6020830184610e8a565b9392505050565b6000819050919050565b6000610ee7610ee2610edd84610ec2565b610e5e565b61091e565b9050919050565b610ef781610ecc565b82525050565b6000604082019050610f126000830185610bd6565b610f1f6020830184610eee565b9392505050565b7f4e487b7100000000000000000000000000000000000000000000000000000000600052602260045260246000fd5b60006002820490506001821680610f6d57607f821691505b602082108103610f8057610f7f610f26565b5b50919050565b60008190508160005260206000209050919050565b60006020601f8301049050919050565b600082821b905092915050565b600060088302610fe87fffffffffffffffffffffffffffffffffffffffffffffffffffffffffffffffff82610fab565b610ff28683610fab565b95508019841693508086168417925050509392505050565b600061102561102061101b846108e8565b610e5e565b6108e8565b9050919050565b6000819050919050565b61103f8361100a565b61105361104b8261102c565b848454610fb8565b825550505050565b600090565b61106861105b565b611073818484611036565b505050565b5b818110156110975761108c600082611060565b600181019050611079565b5050565b601f8211156110dc576110ad81610f86565b6110b684610f9b565b810160208510156110c5578190505b6110d96110d185610f9b565b830182611078565b50505b505050565b600082821c905092915050565b60006110ff600019846008026110e1565b1980831691505092915050565b600061111883836110ee565b9150826002028217905092915050565b61113182610c00565b67ffffffffffffffff81111561114a576111496109d9565b5b6111548254610f55565b61115f82828561109b565b600060209050601f8311600181146111925760008415611180578287015190505b61118a858261110c565b8655506111f2565b601f1984166111a086610f86565b60005b828110156111c8578489015182556001820191506020850194506020810190506111a3565b868310156111e557848901516111e1601f8916826110ee565b8355505b6001600288020188555050505b505050505050565b6000611205826108e8565b9150611210836108e8565b925082820390508181111561122857611227610db8565b5b92915050565b60006060820190506112436000830186610b4d565b6112506020830185610bd6565b81810360408301526112628184610c46565b905094935050505056fea2646970667358221220a876eba00a66089513d339b68040c805856e758f9a668506524c74cc7a275b0464736f6c63430008130033",
  "immutableReferences": {},
  "source": "// SPDX-License-Identifier: UNLICENSED\npragma solidity 0.8.19;\n\nimport \"./ReputationSystemContract.sol\";\n\ncontract ContentContract {\n    struct Content {\n        uint id;\n        string data;\n        address author;\n        bool isFlagged;\n        int score;\n        bool finalDecision;\n    }\n\n    Content[] public contents;\n    int public flagThreshold = -10;\n    int public recoveryThreshold = -5;\n    ReputationSystemContract reputationSystem;\n\n    event ContentCreated(uint contentId, address author, string data);\n    event ContentFlagged(uint contentId);\n    event ContentRecovered(uint contentId);\n    event ScoreUpdated(uint contentId, int score);\n\n    constructor(address _reputationAddress) {\n        reputationSystem = ReputationSystemContract(_reputationAddress);\n    }\n\n    function createContent(string memory _data) public {\n        contents.push(Content({\n            id: contents.length,\n            data: _data,\n            author: msg.sender,\n            isFlagged: false,\n            score: 0,\n            finalDecision: false\n        }));\n        uint id = contents.length - 1;\n        emit ContentCreated(id, msg.sender, _data);\n    }\n\n    function updateScore(uint _id, int _change) public {\n        require(_id < contents.length, \"Content ID does not exist.\");\n        Content storage content = contents[_id];\n        content.score += _change;\n        emit ScoreUpdated(_id, content.score);\n\n        if (content.score <= flagThreshold && !content.isFlagged) {\n            flagContent(_id);\n            reputationSystem.adjustReputation(content.author, -5); // Penalize on flagging\n        } else if (content.score > recoveryThreshold && content.isFlagged) {\n            recoverContent(_id);\n            reputationSystem.adjustReputation(content.author, 3); // Reward on recovery\n        }\n    }\n\n    function flagContent(uint _id) internal {\n        Content storage content = contents[_id];\n        content.isFlagged = true;\n        content.finalDecision = true;\n        emit ContentFlagged(_id);\n    }\n\n    function recoverContent(uint _id) internal {\n        Content storage content = contents[_id];\n        content.isFlagged = false;\n        content.finalDecision = false;\n        emit ContentRecovered(_id);\n    }\n\n    function getContentsCount() public view returns (uint) {\n        return contents.length;\n    }\n\n    function getAuthor(uint _id) public view returns (address) {\n        return contents[_id].author;\n    }\n\n    function isContentFlagged(uint _id) public view returns (bool) {\n        return contents[_id].isFlagged;\n    }\n}\n",
  "sourcePath": "/Users/jochen/Projects/School/Bp/poc/contracts/ContentContract.sol",
  "compiler": {
    "name": "solc",
    "version": "0.8.19+commit.7dd6d404.Emscripten.clang"
  },
  "schemaVersion": "3.4.16",
  "updatedAt": "2024-05-06T19:39:55.358Z",
  "networkType": "ethereum",
  "devdoc": {
    "kind": "dev",
    "methods": {},
    "version": 1
  },
  "userdoc": {
    "kind": "user",
    "methods": {},
    "version": 1
  }
}