{
  "contractName": "MetaCoin",
  "abi": [
    {
      "inputs": [],
      "stateMutability": "nonpayable",
      "type": "constructor"
    },
    {
      "inputs": [
        {
          "internalType": "address",
          "name": "receiver",
          "type": "address"
        },
        {
          "internalType": "uint256",
          "name": "amount",
          "type": "uint256"
        }
      ],
      "name": "sendCoin",
      "outputs": [
        {
          "internalType": "bool",
          "name": "",
          "type": "bool"
        }
      ],
      "stateMutability": "nonpayable",
      "type": "function"
    },
    {
      "inputs": [
        {
          "internalType": "address",
          "name": "addr",
          "type": "address"
        }
      ],
      "name": "getBalance",
      "outputs": [
        {
          "internalType": "uint256",
          "name": "",
          "type": "uint256"
        }
      ],
      "stateMutability": "view",
      "type": "function",
      "constant": true
    }
  ],
  "bytecode": "0x608060405234801561001057600080fd5b506127106000803373ffffffffffffffffffffffffffffffffffffffff1673ffffffffffffffffffffffffffffffffffffffff1681526020019081526020016000208190555061041c806100656000396000f3fe608060405234801561001057600080fd5b50600436106100365760003560e01c806390b98a111461003b578063f8b2cb4f1461006b575b600080fd5b61005560048036038101906100509190610282565b61009b565b60405161006291906102dd565b60405180910390f35b610085600480360381019061008091906102f8565b6101a1565b6040516100929190610334565b60405180910390f35b6000816000803373ffffffffffffffffffffffffffffffffffffffff1673ffffffffffffffffffffffffffffffffffffffff1681526020019081526020016000205410156100ec576000905061019b565b816000803373ffffffffffffffffffffffffffffffffffffffff1673ffffffffffffffffffffffffffffffffffffffff168152602001908152602001600020600082825461013a919061037e565b92505081905550816000808573ffffffffffffffffffffffffffffffffffffffff1673ffffffffffffffffffffffffffffffffffffffff168152602001908152602001600020600082825461018f91906103b2565b92505081905550600190505b92915050565b60008060008373ffffffffffffffffffffffffffffffffffffffff1673ffffffffffffffffffffffffffffffffffffffff168152602001908152602001600020549050919050565b600080fd5b600073ffffffffffffffffffffffffffffffffffffffff82169050919050565b6000610219826101ee565b9050919050565b6102298161020e565b811461023457600080fd5b50565b60008135905061024681610220565b92915050565b6000819050919050565b61025f8161024c565b811461026a57600080fd5b50565b60008135905061027c81610256565b92915050565b60008060408385031215610299576102986101e9565b5b60006102a785828601610237565b92505060206102b88582860161026d565b9150509250929050565b60008115159050919050565b6102d7816102c2565b82525050565b60006020820190506102f260008301846102ce565b92915050565b60006020828403121561030e5761030d6101e9565b5b600061031c84828501610237565b91505092915050565b61032e8161024c565b82525050565b60006020820190506103496000830184610325565b92915050565b7f4e487b7100000000000000000000000000000000000000000000000000000000600052601160045260246000fd5b60006103898261024c565b91506103948361024c565b92508282039050818111156103ac576103ab61034f565b5b92915050565b60006103bd8261024c565b91506103c88361024c565b92508282019050808211156103e0576103df61034f565b5b9291505056fea26469706673582212207aa2723d84cc1e58eb4bce7bcb38f2d89619ad457fe9c90e5fbf297a510f2e2b64736f6c63430008130033",
  "immutableReferences": {},
  "source": "// SPDX-License-Identifier: UNLICENSED\n\npragma solidity ^0.8.0;\n\ncontract MetaCoin {\n\tmapping (address => uint) balances;\n\n\tconstructor() {\n\t\tbalances[msg.sender] = 10000;\n\t}\n\n\tfunction sendCoin(address receiver, uint amount)\n\t    public\n\t    returns (bool)\n    {\n\t\tif (balances[msg.sender] < amount) {\n            return false;\n        }\n\t\tbalances[msg.sender] -= amount;\n\t\tbalances[receiver] += amount;\n\t\treturn true;\n\t}\n\n\tfunction getBalance(address addr)\n\t    public\n\t    view\n\t    returns (uint)\n    {\n  \t    return balances[addr];\n\t}\n}\n",
  "sourcePath": "/Users/jochen/Projects/School/Bp/poc/contracts/MetaCoin.sol",
  "compiler": {
    "name": "solc",
    "version": "0.8.19+commit.7dd6d404.Emscripten.clang"
  },
  "schemaVersion": "3.4.16",
  "updatedAt": "2024-05-04T21:40:29.860Z",
  "networkType": "ethereum",
  "devdoc": {
    "kind": "dev",
    "methods": {},
    "version": 1
  },
  "userdoc": {
    "kind": "user",
    "methods": {},
    "version": 1
  }
}