{
  "contractName": "ReputationSystemContract",
  "abi": [
    {
      "inputs": [
        {
          "internalType": "address",
          "name": "",
          "type": "address"
        }
      ],
      "name": "reputations",
      "outputs": [
        {
          "internalType": "uint256",
          "name": "",
          "type": "uint256"
        }
      ],
      "stateMutability": "view",
      "type": "function",
      "constant": true
    },
    {
      "inputs": [
        {
          "internalType": "address",
          "name": "_user",
          "type": "address"
        },
        {
          "internalType": "bool",
          "name": "_positiveFeedback",
          "type": "bool"
        }
      ],
      "name": "adjustReputation",
      "outputs": [],
      "stateMutability": "nonpayable",
      "type": "function"
    },
    {
      "inputs": [
        {
          "internalType": "address",
          "name": "_user",
          "type": "address"
        }
      ],
      "name": "getReputation",
      "outputs": [
        {
          "internalType": "uint256",
          "name": "",
          "type": "uint256"
        }
      ],
      "stateMutability": "view",
      "type": "function",
      "constant": true
    },
    {
      "inputs": [
        {
          "internalType": "address",
          "name": "_user",
          "type": "address"
        }
      ],
      "name": "getReputationWeight",
      "outputs": [
        {
          "internalType": "int256",
          "name": "",
          "type": "int256"
        }
      ],
      "stateMutability": "view",
      "type": "function",
      "constant": true
    }
  ],
  "bytecode": "0x608060405234801561001057600080fd5b50610552806100206000396000f3fe608060405234801561001057600080fd5b506004361061004c5760003560e01c806306fa15a71461005157806312ff2b1a1461008157806322470a1a1461009d5780639c89a0e2146100cd575b600080fd5b61006b60048036038101906100669190610318565b6100fd565b604051610078919061035e565b60405180910390f35b61009b600480360381019061009691906103b1565b610115565b005b6100b760048036038101906100b29190610318565b610219565b6040516100c4919061040a565b60405180910390f35b6100e760048036038101906100e29190610318565b61026d565b6040516100f4919061035e565b60405180910390f35b60006020528060005260406000206000915090505481565b80156101765760016000808473ffffffffffffffffffffffffffffffffffffffff1673ffffffffffffffffffffffffffffffffffffffff168152602001908152602001600020600082825461016a9190610454565b92505081905550610215565b60008060008473ffffffffffffffffffffffffffffffffffffffff1673ffffffffffffffffffffffffffffffffffffffff1681526020019081526020016000205411156102145760016000808473ffffffffffffffffffffffffffffffffffffffff1673ffffffffffffffffffffffffffffffffffffffff168152602001908152602001600020600082825461020c9190610488565b925050819055505b5b5050565b6000600a6000808473ffffffffffffffffffffffffffffffffffffffff1673ffffffffffffffffffffffffffffffffffffffff1681526020019081526020016000205461026691906104eb565b9050919050565b60008060008373ffffffffffffffffffffffffffffffffffffffff1673ffffffffffffffffffffffffffffffffffffffff168152602001908152602001600020549050919050565b600080fd5b600073ffffffffffffffffffffffffffffffffffffffff82169050919050565b60006102e5826102ba565b9050919050565b6102f5816102da565b811461030057600080fd5b50565b600081359050610312816102ec565b92915050565b60006020828403121561032e5761032d6102b5565b5b600061033c84828501610303565b91505092915050565b6000819050919050565b61035881610345565b82525050565b6000602082019050610373600083018461034f565b92915050565b60008115159050919050565b61038e81610379565b811461039957600080fd5b50565b6000813590506103ab81610385565b92915050565b600080604083850312156103c8576103c76102b5565b5b60006103d685828601610303565b92505060206103e78582860161039c565b9150509250929050565b6000819050919050565b610404816103f1565b82525050565b600060208201905061041f60008301846103fb565b92915050565b7f4e487b7100000000000000000000000000000000000000000000000000000000600052601160045260246000fd5b600061045f82610345565b915061046a83610345565b925082820190508082111561048257610481610425565b5b92915050565b600061049382610345565b915061049e83610345565b92508282039050818111156104b6576104b5610425565b5b92915050565b7f4e487b7100000000000000000000000000000000000000000000000000000000600052601260045260246000fd5b60006104f682610345565b915061050183610345565b925082610511576105106104bc565b5b82820490509291505056fea264697066735822122022152c138845df8871818fab9a6cb5b1c2d091a480542f847026f0f950eebaac64736f6c63430008130033",
  "immutableReferences": {},
  "source": "// SPDX-License-Identifier: UNLICENSED\n\npragma solidity 0.8.19;\n\ncontract ReputationSystemContract {\n    mapping(address => uint) public reputations;\n\n    function adjustReputation(address _user, bool _positiveFeedback) public {\n        if (_positiveFeedback) {\n            reputations[_user] += 1;\n        } else if (reputations[_user] > 0) {\n            reputations[_user] -= 1;\n        }\n    }\n\n    function getReputation(address _user) public view returns (uint) {\n        return reputations[_user];\n    }\n\n    function getReputationWeight(address _user) public view returns (int) {\n        return int(reputations[_user] / 10);\n    }\n}",
  "sourcePath": "/Users/jochen/Projects/School/Bp/poc/contracts/ReputationSystemContract.sol",
  "compiler": {
    "name": "solc",
    "version": "0.8.19+commit.7dd6d404.Emscripten.clang"
  },
  "schemaVersion": "3.4.16",
  "updatedAt": "2024-05-04T21:40:29.867Z",
  "networkType": "ethereum",
  "devdoc": {
    "kind": "dev",
    "methods": {},
    "version": 1
  },
  "userdoc": {
    "kind": "user",
    "methods": {},
    "version": 1
  }
}