{
  "contractName": "ReputationSystemContract",
  "abi": [
    {
      "inputs": [],
      "stateMutability": "nonpayable",
      "type": "constructor"
    },
    {
      "inputs": [],
      "name": "owner",
      "outputs": [
        {
          "internalType": "address",
          "name": "",
          "type": "address"
        }
      ],
      "stateMutability": "view",
      "type": "function",
      "constant": true
    },
    {
      "inputs": [
        {
          "internalType": "address",
          "name": "",
          "type": "address"
        }
      ],
      "name": "reputations",
      "outputs": [
        {
          "internalType": "uint256",
          "name": "",
          "type": "uint256"
        }
      ],
      "stateMutability": "view",
      "type": "function",
      "constant": true
    },
    {
      "inputs": [],
      "name": "requiredReputationToVote",
      "outputs": [
        {
          "internalType": "uint256",
          "name": "",
          "type": "uint256"
        }
      ],
      "stateMutability": "view",
      "type": "function",
      "constant": true
    },
    {
      "inputs": [
        {
          "internalType": "address",
          "name": "_user",
          "type": "address"
        },
        {
          "internalType": "int256",
          "name": "_amount",
          "type": "int256"
        }
      ],
      "name": "adjustReputation",
      "outputs": [],
      "stateMutability": "nonpayable",
      "type": "function"
    },
    {
      "inputs": [
        {
          "internalType": "address",
          "name": "_user",
          "type": "address"
        }
      ],
      "name": "getReputation",
      "outputs": [
        {
          "internalType": "uint256",
          "name": "",
          "type": "uint256"
        }
      ],
      "stateMutability": "view",
      "type": "function",
      "constant": true
    },
    {
      "inputs": [
        {
          "internalType": "address",
          "name": "_user",
          "type": "address"
        }
      ],
      "name": "getReputationWeight",
      "outputs": [
        {
          "internalType": "int256",
          "name": "",
          "type": "int256"
        }
      ],
      "stateMutability": "view",
      "type": "function",
      "constant": true
    },
    {
      "inputs": [
        {
          "internalType": "uint256",
          "name": "_value",
          "type": "uint256"
        }
      ],
      "name": "setRequiredReputationToVote",
      "outputs": [],
      "stateMutability": "nonpayable",
      "type": "function"
    },
    {
      "inputs": [],
      "name": "getRequiredReputationToVote",
      "outputs": [
        {
          "internalType": "uint256",
          "name": "",
          "type": "uint256"
        }
      ],
      "stateMutability": "view",
      "type": "function",
      "constant": true
    },
    {
      "inputs": [
        {
          "internalType": "address",
          "name": "_user",
          "type": "address"
        },
        {
          "internalType": "int256",
          "name": "_change",
          "type": "int256"
        }
      ],
      "name": "modifyReputation",
      "outputs": [],
      "stateMutability": "nonpayable",
      "type": "function"
    },
    {
      "inputs": [
        {
          "internalType": "address",
          "name": "_voter",
          "type": "address"
        },
        {
          "internalType": "bool",
          "name": "_vote",
          "type": "bool"
        }
      ],
      "name": "registerVote",
      "outputs": [],
      "stateMutability": "nonpayable",
      "type": "function"
    },
    {
      "inputs": [
        {
          "internalType": "address",
          "name": "_user",
          "type": "address"
        },
        {
          "internalType": "int256",
          "name": "_amount",
          "type": "int256"
        }
      ],
      "name": "adjustReputationAdmin",
      "outputs": [],
      "stateMutability": "nonpayable",
      "type": "function"
    },
    {
      "inputs": [
        {
          "internalType": "address",
          "name": "_owner",
          "type": "address"
        }
      ],
      "name": "setOwner",
      "outputs": [],
      "stateMutability": "nonpayable",
      "type": "function"
    }
  ],
  "bytecode": "0x6080604052600a60015534801561001557600080fd5b5033600260006101000a81548173ffffffffffffffffffffffffffffffffffffffff021916908373ffffffffffffffffffffffffffffffffffffffff160217905550610b39806100666000396000f3fe608060405234801561001057600080fd5b50600436106100b45760003560e01c80638da5cb5b116100715780638da5cb5b14610189578063913b72cb146101a75780639c89a0e2146101c5578063bc66ed0c146101f5578063d3fbc54114610213578063f5b3ceda1461022f576100b4565b806306fa15a7146100b957806313af4035146100e95780631c60c9e41461010557806322470a1a146101215780635519d590146101515780636f34c3f81461016d575b600080fd5b6100d360048036038101906100ce91906106c7565b61024b565b6040516100e0919061070d565b60405180910390f35b61010360048036038101906100fe91906106c7565b610263565b005b61011f600480360381019061011a919061075e565b610337565b005b61013b600480360381019061013691906106c7565b6103eb565b60405161014891906107ad565b60405180910390f35b61016b6004803603810190610166919061075e565b610444565b005b610187600480360381019061018291906107f4565b6104e2565b005b6101916104ec565b60405161019e9190610830565b60405180910390f35b6101af610512565b6040516101bc919061070d565b60405180910390f35b6101df60048036038101906101da91906106c7565b61051c565b6040516101ec919061070d565b60405180910390f35b6101fd610564565b60405161020a919061070d565b60405180910390f35b61022d60048036038101906102289190610883565b61056a565b005b6102496004803603810190610244919061075e565b6105af565b005b60006020528060005260406000206000915090505481565b600260009054906101000a900473ffffffffffffffffffffffffffffffffffffffff1673ffffffffffffffffffffffffffffffffffffffff163373ffffffffffffffffffffffffffffffffffffffff16146102f3576040517f08c379a00000000000000000000000000000000000000000000000000000000081526004016102ea90610946565b60405180910390fd5b80600260006101000a81548173ffffffffffffffffffffffffffffffffffffffff021916908373ffffffffffffffffffffffffffffffffffffffff16021790555050565b600081138061038c57508061034b90610995565b6000808473ffffffffffffffffffffffffffffffffffffffff1673ffffffffffffffffffffffffffffffffffffffff16815260200190815260200160002054115b156103e757806000808473ffffffffffffffffffffffffffffffffffffffff1673ffffffffffffffffffffffffffffffffffffffff16815260200190815260200160002060008282546103df91906109dd565b925050819055505b5050565b6000806000808473ffffffffffffffffffffffffffffffffffffffff1673ffffffffffffffffffffffffffffffffffffffff168152602001908152602001600020549050600a8161043c9190610a40565b915050919050565b600260009054906101000a900473ffffffffffffffffffffffffffffffffffffffff1673ffffffffffffffffffffffffffffffffffffffff163373ffffffffffffffffffffffffffffffffffffffff16146104d4576040517f08c379a00000000000000000000000000000000000000000000000000000000081526004016104cb90610ae3565b60405180910390fd5b6104de82826105af565b5050565b8060018190555050565b600260009054906101000a900473ffffffffffffffffffffffffffffffffffffffff1681565b6000600154905090565b60008060008373ffffffffffffffffffffffffffffffffffffffff1673ffffffffffffffffffffffffffffffffffffffff168152602001908152602001600020549050919050565b60015481565b80156105805761057b8260016105af565b6105ab565b6105aa827fffffffffffffffffffffffffffffffffffffffffffffffffffffffffffffffff6105af565b5b5050565b60008113806106055750806105c390610995565b6000808473ffffffffffffffffffffffffffffffffffffffff1673ffffffffffffffffffffffffffffffffffffffff1681526020019081526020016000205410155b1561066057806000808473ffffffffffffffffffffffffffffffffffffffff1673ffffffffffffffffffffffffffffffffffffffff168152602001908152602001600020600082825461065891906109dd565b925050819055505b5050565b600080fd5b600073ffffffffffffffffffffffffffffffffffffffff82169050919050565b600061069482610669565b9050919050565b6106a481610689565b81146106af57600080fd5b50565b6000813590506106c18161069b565b92915050565b6000602082840312156106dd576106dc610664565b5b60006106eb848285016106b2565b91505092915050565b6000819050919050565b610707816106f4565b82525050565b600060208201905061072260008301846106fe565b92915050565b6000819050919050565b61073b81610728565b811461074657600080fd5b50565b60008135905061075881610732565b92915050565b6000806040838503121561077557610774610664565b5b6000610783858286016106b2565b925050602061079485828601610749565b9150509250929050565b6107a781610728565b82525050565b60006020820190506107c2600083018461079e565b92915050565b6107d1816106f4565b81146107dc57600080fd5b50565b6000813590506107ee816107c8565b92915050565b60006020828403121561080a57610809610664565b5b6000610818848285016107df565b91505092915050565b61082a81610689565b82525050565b60006020820190506108456000830184610821565b92915050565b60008115159050919050565b6108608161084b565b811461086b57600080fd5b50565b60008135905061087d81610857565b92915050565b6000806040838503121561089a57610899610664565b5b60006108a8858286016106b2565b92505060206108b98582860161086e565b9150509250929050565b600082825260208201905092915050565b7f4f6e6c792074686520636f6e7472616374206f776e65722063616e206368616e60008201527f6765206f776e6572736869702e00000000000000000000000000000000000000602082015250565b6000610930602d836108c3565b915061093b826108d4565b604082019050919050565b6000602082019050818103600083015261095f81610923565b9050919050565b7f4e487b7100000000000000000000000000000000000000000000000000000000600052601160045260246000fd5b60006109a082610728565b91507f800000000000000000000000000000000000000000000000000000000000000082036109d2576109d1610966565b5b816000039050919050565b60006109e8826106f4565b91506109f3836106f4565b9250828201905080821115610a0b57610a0a610966565b5b92915050565b7f4e487b7100000000000000000000000000000000000000000000000000000000600052601260045260246000fd5b6000610a4b826106f4565b9150610a56836106f4565b925082610a6657610a65610a11565b5b828204905092915050565b7f4f6e6c792074686520636f6e7472616374206f776e65722063616e2061646a7560008201527f73742072657075746174696f6e2e000000000000000000000000000000000000602082015250565b6000610acd602e836108c3565b9150610ad882610a71565b604082019050919050565b60006020820190508181036000830152610afc81610ac0565b905091905056fea264697066735822122079dd2795cbc4570443fc036a35cf3950bbf8cbee2592edbfa9ba2081d13fd49f64736f6c63430008130033",
  "immutableReferences": {},
  "source": "// SPDX-License-Identifier: UNLICENSED\npragma solidity 0.8.19;\n\ncontract ReputationSystemContract {\n    mapping(address => uint) public reputations;\n    uint public requiredReputationToVote = 10; \n    address public owner;\n\n    constructor() {\n        owner = msg.sender;\n    }\n\n    function adjustReputation(address _user, int _amount) public {\n        // Safe check for negative reputations\n        if (_amount > 0 || (reputations[_user] >= uint(-_amount))) {\n            reputations[_user] += uint(_amount);\n        }\n    }\n\n    function getReputation(address _user) public view returns (uint) {\n        return reputations[_user];\n    }\n\n    function getReputationWeight(address _user) public view returns (int) {\n        uint baseReputation = reputations[_user];\n        return int(baseReputation / 10);  // Simple scaling for reputation impact\n    }\n\n    function setRequiredReputationToVote(uint _value) public {\n        requiredReputationToVote = _value;\n    }\n\n    function getRequiredReputationToVote() public view returns (uint) {\n        return requiredReputationToVote;\n    }\n\n    // Method to increment or decrement reputation safely\n    function modifyReputation(address _user, int _change) public {\n        if (_change > 0 || (reputations[_user] > uint(-_change))) {\n            reputations[_user] += uint(_change);\n        }\n    }\n\n    // Register user vote activity\n    function registerVote(address _voter, bool _vote) public {\n        if (_vote) {\n            adjustReputation(_voter, 1);\n        } else {\n            adjustReputation(_voter, -1);\n        }\n    }\n\n    function adjustReputationAdmin(address _user, int _amount) public {\n        require(msg.sender == owner, \"Only the contract owner can adjust reputation.\");\n        adjustReputation(_user, _amount);\n    }\n\n    function setOwner(address _owner) public {\n        require(msg.sender == owner, \"Only the contract owner can change ownership.\");\n        owner = _owner;\n    }\n}\n",
  "sourcePath": "/Users/jochen/Projects/School/Bp/poc/contracts/ReputationSystemContract.sol",
  "compiler": {
    "name": "solc",
    "version": "0.8.19+commit.7dd6d404.Emscripten.clang"
  },
  "schemaVersion": "3.4.16",
  "updatedAt": "2024-05-06T19:39:55.366Z",
  "networkType": "ethereum",
  "devdoc": {
    "kind": "dev",
    "methods": {},
    "version": 1
  },
  "userdoc": {
    "kind": "user",
    "methods": {},
    "version": 1
  }
}