{
  "contractName": "VotingContract",
  "abi": [
    {
      "inputs": [
        {
          "internalType": "address",
          "name": "_contentAddress",
          "type": "address"
        },
        {
          "internalType": "address",
          "name": "_reputationAddress",
          "type": "address"
        }
      ],
      "stateMutability": "nonpayable",
      "type": "constructor"
    },
    {
      "inputs": [],
      "name": "contentContract",
      "outputs": [
        {
          "internalType": "contract ContentContract",
          "name": "",
          "type": "address"
        }
      ],
      "stateMutability": "view",
      "type": "function",
      "constant": true
    },
    {
      "inputs": [],
      "name": "reputationSystem",
      "outputs": [
        {
          "internalType": "contract ReputationSystemContract",
          "name": "",
          "type": "address"
        }
      ],
      "stateMutability": "view",
      "type": "function",
      "constant": true
    },
    {
      "inputs": [
        {
          "internalType": "uint256",
          "name": "_contentId",
          "type": "uint256"
        },
        {
          "internalType": "bool",
          "name": "_vote",
          "type": "bool"
        }
      ],
      "name": "vote",
      "outputs": [],
      "stateMutability": "nonpayable",
      "type": "function"
    }
  ],
  "bytecode": "0x608060405234801561001057600080fd5b50604051610c7a380380610c7a8339818101604052810190610032919061011d565b816000806101000a81548173ffffffffffffffffffffffffffffffffffffffff021916908373ffffffffffffffffffffffffffffffffffffffff16021790555080600160006101000a81548173ffffffffffffffffffffffffffffffffffffffff021916908373ffffffffffffffffffffffffffffffffffffffff160217905550505061015d565b600080fd5b600073ffffffffffffffffffffffffffffffffffffffff82169050919050565b60006100ea826100bf565b9050919050565b6100fa816100df565b811461010557600080fd5b50565b600081519050610117816100f1565b92915050565b60008060408385031215610134576101336100ba565b5b600061014285828601610108565b925050602061015385828601610108565b9150509250929050565b610b0e8061016c6000396000f3fe608060405234801561001057600080fd5b50600436106100415760003560e01c80632cb7d92f146100465780636587eda114610064578063c9d27afe14610082575b600080fd5b61004e61009e565b60405161005b919061063b565b60405180910390f35b61006c6100c2565b6040516100799190610677565b60405180910390f35b61009c60048036038101906100979190610705565b6100e8565b005b60008054906101000a900473ffffffffffffffffffffffffffffffffffffffff1681565b600160009054906101000a900473ffffffffffffffffffffffffffffffffffffffff1681565b6000600160009054906101000a900473ffffffffffffffffffffffffffffffffffffffff1673ffffffffffffffffffffffffffffffffffffffff166322470a1a336040518263ffffffff1660e01b81526004016101459190610766565b602060405180830381865afa158015610162573d6000803e3d6000fd5b505050506040513d601f19601f8201168201806040525081019061018691906107b7565b9050600081136101cb576040517f08c379a00000000000000000000000000000000000000000000000000000000081526004016101c290610841565b60405180910390fd5b60008054906101000a900473ffffffffffffffffffffffffffffffffffffffff1673ffffffffffffffffffffffffffffffffffffffff166316437f06848461021c578361021790610890565b61021e565b835b6040518363ffffffff1660e01b815260040161023b9291906108f6565b600060405180830381600087803b15801561025557600080fd5b505af1158015610269573d6000803e3d6000fd5b50505050600160009054906101000a900473ffffffffffffffffffffffffffffffffffffffff1673ffffffffffffffffffffffffffffffffffffffff1663d3fbc54133846040518363ffffffff1660e01b81526004016102ca92919061092e565b600060405180830381600087803b1580156102e457600080fd5b505af11580156102f8573d6000803e3d6000fd5b5050505060008060009054906101000a900473ffffffffffffffffffffffffffffffffffffffff1673ffffffffffffffffffffffffffffffffffffffff1663c2dca6ab856040518263ffffffff1660e01b81526004016103589190610957565b602060405180830381865afa158015610375573d6000803e3d6000fd5b505050506040513d601f19601f820116820180604052508101906103999190610987565b905060008380156103a8575081155b806103ba5750831580156103b95750815b5b9050600160009054906101000a900473ffffffffffffffffffffffffffffffffffffffff1673ffffffffffffffffffffffffffffffffffffffff1663f5b3ceda3383610426577fffffffffffffffffffffffffffffffffffffffffffffffffffffffffffffffff610429565b60015b6040518363ffffffff1660e01b81526004016104469291906109f2565b600060405180830381600087803b15801561046057600080fd5b505af1158015610474573d6000803e3d6000fd5b5050505083156105b55760008060009054906101000a900473ffffffffffffffffffffffffffffffffffffffff1673ffffffffffffffffffffffffffffffffffffffff16639e2b8488876040518263ffffffff1660e01b81526004016104da9190610957565b602060405180830381865afa1580156104f7573d6000803e3d6000fd5b505050506040513d601f19601f8201168201806040525081019061051b9190610a47565b9050826105b357600160009054906101000a900473ffffffffffffffffffffffffffffffffffffffff1673ffffffffffffffffffffffffffffffffffffffff1663f5b3ceda8260016040518363ffffffff1660e01b8152600401610580929190610aaf565b600060405180830381600087803b15801561059a57600080fd5b505af11580156105ae573d6000803e3d6000fd5b505050505b505b5050505050565b600073ffffffffffffffffffffffffffffffffffffffff82169050919050565b6000819050919050565b60006106016105fc6105f7846105bc565b6105dc565b6105bc565b9050919050565b6000610613826105e6565b9050919050565b600061062582610608565b9050919050565b6106358161061a565b82525050565b6000602082019050610650600083018461062c565b92915050565b600061066182610608565b9050919050565b61067181610656565b82525050565b600060208201905061068c6000830184610668565b92915050565b600080fd5b6000819050919050565b6106aa81610697565b81146106b557600080fd5b50565b6000813590506106c7816106a1565b92915050565b60008115159050919050565b6106e2816106cd565b81146106ed57600080fd5b50565b6000813590506106ff816106d9565b92915050565b6000806040838503121561071c5761071b610692565b5b600061072a858286016106b8565b925050602061073b858286016106f0565b9150509250929050565b6000610750826105bc565b9050919050565b61076081610745565b82525050565b600060208201905061077b6000830184610757565b92915050565b6000819050919050565b61079481610781565b811461079f57600080fd5b50565b6000815190506107b18161078b565b92915050565b6000602082840312156107cd576107cc610692565b5b60006107db848285016107a2565b91505092915050565b600082825260208201905092915050565b7f496e73756666696369656e742072657075746174696f6e20746f20766f74652e600082015250565b600061082b6020836107e4565b9150610836826107f5565b602082019050919050565b6000602082019050818103600083015261085a8161081e565b9050919050565b7f4e487b7100000000000000000000000000000000000000000000000000000000600052601160045260246000fd5b600061089b82610781565b91507f800000000000000000000000000000000000000000000000000000000000000082036108cd576108cc610861565b5b816000039050919050565b6108e181610697565b82525050565b6108f081610781565b82525050565b600060408201905061090b60008301856108d8565b61091860208301846108e7565b9392505050565b610928816106cd565b82525050565b60006040820190506109436000830185610757565b610950602083018461091f565b9392505050565b600060208201905061096c60008301846108d8565b92915050565b600081519050610981816106d9565b92915050565b60006020828403121561099d5761099c610692565b5b60006109ab84828501610972565b91505092915050565b60008160000b9050919050565b60006109dc6109d76109d2846109b4565b6105dc565b610781565b9050919050565b6109ec816109c1565b82525050565b6000604082019050610a076000830185610757565b610a1460208301846109e3565b9392505050565b610a2481610745565b8114610a2f57600080fd5b50565b600081519050610a4181610a1b565b92915050565b600060208284031215610a5d57610a5c610692565b5b6000610a6b84828501610a32565b91505092915050565b6000819050919050565b6000610a99610a94610a8f84610a74565b6105dc565b610781565b9050919050565b610aa981610a7e565b82525050565b6000604082019050610ac46000830185610757565b610ad16020830184610aa0565b939250505056fea26469706673582212206b8bac98092e0fee33044c939cdcffb76be6cbd7d4458bd0848f4767a48424bd64736f6c63430008130033",
  "immutableReferences": {},
  "source": "// SPDX-License-Identifier: UNLICENSED\npragma solidity 0.8.19;\n\nimport \"./ContentContract.sol\";\nimport \"./ReputationSystemContract.sol\";\n\ncontract VotingContract {\n    ContentContract public contentContract;\n    ReputationSystemContract public reputationSystem;\n\n    constructor(address _contentAddress, address _reputationAddress) {\n        contentContract = ContentContract(_contentAddress);\n        reputationSystem = ReputationSystemContract(_reputationAddress);\n    }\n\n    function vote(uint _contentId, bool _vote) public {\n        // Retrieve the weight of the vote based on the user's current reputation\n        int voteWeight = reputationSystem.getReputationWeight(msg.sender);\n        require(voteWeight > 0, \"Insufficient reputation to vote.\");\n\n        // Update the content score based on the vote\n        contentContract.updateScore(_contentId, _vote ? voteWeight : -voteWeight);\n        \n        // Register the vote for user activity and total votes cast\n        reputationSystem.registerVote(msg.sender, _vote);\n        \n        // Check if the content is currently flagged\n        bool isContentFlagged = contentContract.isContentFlagged(_contentId);\n        // Determine vote accuracy based on the content's flagged status and vote type\n        bool accurateVote = (_vote && !isContentFlagged) || (!_vote && isContentFlagged);\n\n        // Adjust the voter's reputation based on the accuracy of their vote\nreputationSystem.adjustReputation(msg.sender, accurateVote ? int8(1) : -1);  // Adjust by +1 or -1 based on accuracy\n        // If the vote is positive, reward the author\n        if (_vote) {\n            address author = contentContract.getAuthor(_contentId);\n            // Reward the author only if the vote contributes positively to unflagged content\n            if(!isContentFlagged) {\n                reputationSystem.adjustReputation(author, 1);  // Reward the author\n            }\n        }\n    }\n}\n",
  "sourcePath": "/Users/jochen/Projects/School/Bp/poc/contracts/VotingContract.sol",
  "compiler": {
    "name": "solc",
    "version": "0.8.19+commit.7dd6d404.Emscripten.clang"
  },
  "schemaVersion": "3.4.16",
  "updatedAt": "2024-05-06T22:40:47.389Z",
  "networkType": "ethereum",
  "devdoc": {
    "kind": "dev",
    "methods": {},
    "version": 1
  },
  "userdoc": {
    "kind": "user",
    "methods": {},
    "version": 1
  }
}