{
  "contractName": "VotingContract",
  "abi": [
    {
      "inputs": [
        {
          "internalType": "address",
          "name": "_contentAddress",
          "type": "address"
        },
        {
          "internalType": "address",
          "name": "_reputationAddress",
          "type": "address"
        }
      ],
      "stateMutability": "nonpayable",
      "type": "constructor"
    },
    {
      "inputs": [],
      "name": "contentContract",
      "outputs": [
        {
          "internalType": "contract ContentContract",
          "name": "",
          "type": "address"
        }
      ],
      "stateMutability": "view",
      "type": "function",
      "constant": true
    },
    {
      "inputs": [],
      "name": "reputationSystem",
      "outputs": [
        {
          "internalType": "contract ReputationSystemContract",
          "name": "",
          "type": "address"
        }
      ],
      "stateMutability": "view",
      "type": "function",
      "constant": true
    },
    {
      "inputs": [
        {
          "internalType": "uint256",
          "name": "_contentId",
          "type": "uint256"
        },
        {
          "internalType": "bool",
          "name": "_vote",
          "type": "bool"
        }
      ],
      "name": "vote",
      "outputs": [],
      "stateMutability": "nonpayable",
      "type": "function"
    }
  ],
  "bytecode": "0x608060405234801561001057600080fd5b5060405161091b38038061091b8339818101604052810190610032919061011d565b816000806101000a81548173ffffffffffffffffffffffffffffffffffffffff021916908373ffffffffffffffffffffffffffffffffffffffff16021790555080600160006101000a81548173ffffffffffffffffffffffffffffffffffffffff021916908373ffffffffffffffffffffffffffffffffffffffff160217905550505061015d565b600080fd5b600073ffffffffffffffffffffffffffffffffffffffff82169050919050565b60006100ea826100bf565b9050919050565b6100fa816100df565b811461010557600080fd5b50565b600081519050610117816100f1565b92915050565b60008060408385031215610134576101336100ba565b5b600061014285828601610108565b925050602061015385828601610108565b9150509250929050565b6107af8061016c6000396000f3fe608060405234801561001057600080fd5b50600436106100415760003560e01c80632cb7d92f146100465780636587eda114610064578063c9d27afe14610082575b600080fd5b61004e61009e565b60405161005b919061041b565b60405180910390f35b61006c6100c2565b6040516100799190610457565b60405180910390f35b61009c600480360381019061009791906104e5565b6100e8565b005b60008054906101000a900473ffffffffffffffffffffffffffffffffffffffff1681565b600160009054906101000a900473ffffffffffffffffffffffffffffffffffffffff1681565b6000600160009054906101000a900473ffffffffffffffffffffffffffffffffffffffff1673ffffffffffffffffffffffffffffffffffffffff16639c89a0e2336040518263ffffffff1660e01b81526004016101459190610546565b602060405180830381865afa158015610162573d6000803e3d6000fd5b505050506040513d601f19601f820116820180604052508101906101869190610576565b116101c6576040517f08c379a00000000000000000000000000000000000000000000000000000000081526004016101bd90610600565b60405180910390fd5b6000600160009054906101000a900473ffffffffffffffffffffffffffffffffffffffff1673ffffffffffffffffffffffffffffffffffffffff166322470a1a336040518263ffffffff1660e01b81526004016102239190610546565b602060405180830381865afa158015610240573d6000803e3d6000fd5b505050506040513d601f19601f820116820180604052508101906102649190610656565b905060008054906101000a900473ffffffffffffffffffffffffffffffffffffffff1673ffffffffffffffffffffffffffffffffffffffff166316437f0684846102b757836102b2906106b2565b6102b9565b835b6040518363ffffffff1660e01b81526004016102d6929190610718565b600060405180830381600087803b1580156102f057600080fd5b505af1158015610304573d6000803e3d6000fd5b50505050600160009054906101000a900473ffffffffffffffffffffffffffffffffffffffff1673ffffffffffffffffffffffffffffffffffffffff166312ff2b1a33846040518363ffffffff1660e01b8152600401610365929190610750565b600060405180830381600087803b15801561037f57600080fd5b505af1158015610393573d6000803e3d6000fd5b50505050505050565b600073ffffffffffffffffffffffffffffffffffffffff82169050919050565b6000819050919050565b60006103e16103dc6103d78461039c565b6103bc565b61039c565b9050919050565b60006103f3826103c6565b9050919050565b6000610405826103e8565b9050919050565b610415816103fa565b82525050565b6000602082019050610430600083018461040c565b92915050565b6000610441826103e8565b9050919050565b61045181610436565b82525050565b600060208201905061046c6000830184610448565b92915050565b600080fd5b6000819050919050565b61048a81610477565b811461049557600080fd5b50565b6000813590506104a781610481565b92915050565b60008115159050919050565b6104c2816104ad565b81146104cd57600080fd5b50565b6000813590506104df816104b9565b92915050565b600080604083850312156104fc576104fb610472565b5b600061050a85828601610498565b925050602061051b858286016104d0565b9150509250929050565b60006105308261039c565b9050919050565b61054081610525565b82525050565b600060208201905061055b6000830184610537565b92915050565b60008151905061057081610481565b92915050565b60006020828403121561058c5761058b610472565b5b600061059a84828501610561565b91505092915050565b600082825260208201905092915050565b7f496e73756666696369656e742072657075746174696f6e20746f20766f74652e600082015250565b60006105ea6020836105a3565b91506105f5826105b4565b602082019050919050565b60006020820190508181036000830152610619816105dd565b9050919050565b6000819050919050565b61063381610620565b811461063e57600080fd5b50565b6000815190506106508161062a565b92915050565b60006020828403121561066c5761066b610472565b5b600061067a84828501610641565b91505092915050565b7f4e487b7100000000000000000000000000000000000000000000000000000000600052601160045260246000fd5b60006106bd82610620565b91507f800000000000000000000000000000000000000000000000000000000000000082036106ef576106ee610683565b5b816000039050919050565b61070381610477565b82525050565b61071281610620565b82525050565b600060408201905061072d60008301856106fa565b61073a6020830184610709565b9392505050565b61074a816104ad565b82525050565b60006040820190506107656000830185610537565b6107726020830184610741565b939250505056fea26469706673582212204739c635d40f8fef63499dcf032d889bfd93678ae1ff1e0a5aff20e71a13e1f464736f6c63430008130033",
  "immutableReferences": {},
  "source": "// SPDX-License-Identifier: UNLICENSED\n\npragma solidity 0.8.19;\n\nimport \"./ContentContract.sol\";\nimport \"./ReputationSystemContract.sol\";\n\ncontract VotingContract {\n    ContentContract public contentContract;\n    ReputationSystemContract public reputationSystem;\n\n    constructor(address _contentAddress, address _reputationAddress) {\n        contentContract = ContentContract(_contentAddress);\n        reputationSystem = ReputationSystemContract(_reputationAddress);\n    }\n\n    function vote(uint _contentId, bool _vote) public {\n        require(reputationSystem.getReputation(msg.sender) > 0, \"Insufficient reputation to vote.\");\n\n        int voteWeight = int(reputationSystem.getReputationWeight(msg.sender));\n        contentContract.updateScore(_contentId, _vote ? voteWeight : -voteWeight);\n        \n        reputationSystem.adjustReputation(msg.sender, _vote);\n    }\n}",
  "sourcePath": "/Users/jochen/Projects/School/Bp/poc/contracts/VotingContract.sol",
  "compiler": {
    "name": "solc",
    "version": "0.8.19+commit.7dd6d404.Emscripten.clang"
  },
  "schemaVersion": "3.4.16",
  "updatedAt": "2024-05-04T21:40:29.869Z",
  "networkType": "ethereum",
  "devdoc": {
    "kind": "dev",
    "methods": {},
    "version": 1
  },
  "userdoc": {
    "kind": "user",
    "methods": {},
    "version": 1
  }
}